:100000000C9462000C948A000C948A000C948A0070
:100010000C948A000C948A000C948A000C948A0038
:100020000C948A000C948A000C948A000C948A0028
:100030000C948A000C948A000C948A000C948A0018
:100040000C94F2010C948A000C9464030C948A00C2
:100050000C948A000C948A000C948A000C948A00F8
:100060000C948A000C948A000000000024002700F1
:100070002A0000000000250028002B0000000000DE
:1000800023002600290004040404040404040202DA
:100090000202020203030303030301020408102007
:1000A0004080010204081020010204081020000012
:1000B0000007000201000003040600000000000029
:1000C0000000AD0411241FBECFEFD8E0DEBFCDBFCE
:1000D00011E0A0E0B1E0EEEEFDE002C005900D926F
:1000E000AA30B107D9F711E0AAE0B1E001C01D9232
:1000F000A23BB107E1F710E0C4ECD0E004C02297C6
:10010000FE010E94F106C23CD107C9F70E94EB0133
:100110000C94F5060C940000AF92BF92CF92DF9240
:10012000EF92FF920F931F93CF93DF937B018C018C
:1001300059016A0160910A0170910B0180910C01D3
:1001400090910D0120E030E040E050E00E941E055B
:100150001816F4F0C801B70120E030E040E050E0AC
:100160000E9405061816A4F486E060E070E00E9484
:100170009E0285E060E070E00E949E0264EF71E004
:1001800080E090E00E943A0288E061E00E9417035C
:1001900060910A0170910B0180910C0190910D0109
:1001A00020E030E040E050E00E9405068823F4F0B3
:1001B000C801B70120E030E040E050E00E941E0599
:1001C0008823A4F486E060E070E00E949E0285E04F
:1001D00060E070E00E949E0264EF71E080E090E0D9
:1001E0000E943A0288E060E00E94170360910E01CD
:1001F00070910F01809110019091110120E030E089
:1002000040E050E00E941E051816F4F0C601B5014A
:1002100020E030E040E050E00E9405061816A4F40B
:1002200086E060E070E00E949E0285E060E070E0A1
:100230000E949E0264EF71E080E090E00E943A022A
:1002400087E061E00E94170360910E0170910F0139
:10025000809110019091110120E030E040E050E0E9
:100260000E9405068823F4F0C601B50120E030E0C5
:1002700040E050E00E941E058823A4F486E060E080
:1002800070E00E949E0285E060E070E00E949E02A5
:1002900064EF71E080E090E00E943A0287E060E065
:1002A0000E941703E0920A01F0920B0100930C01E7
:1002B00010930D01A0920E01B0920F01C092100197
:1002C000D0921101C801B70120E030E04FE753E4BC
:1002D0000E9409060E9422058B0177FF03C010953A
:1002E00001951F4FC601B50120E030E04CE753E413
:1002F0000E9409060E942205EB0177FF03C0D095FA
:10030000C195DF4FB801882777FD8095982F0E940F
:1003100055050E9422059B01AC0186E0B9010E94AF
:100320009E02BE01882777FD8095982F0E94550573
:100330000E9422059B01AC0185E0B9010E949E024A
:10034000DF91CF911F910F91FF90EF90DF90CF90B1
:10035000BF90AF90089566E676E686E29FEB9B013C
:10036000AC010E948C0068EE73E080E090E00E9497
:100370003A0266E676E686E29FE39B01AC010E94C4
:100380008C0068EE73E080E090E00E943A020895ED
:100390008FE991E040E051EE60E070E00E94A1033F
:1003A00088E061E00E94F70288E061E00E941703A4
:1003B00087E061E00E94F70287E061E00E94170396
:1003C00086E060E070E00E949E0285E060E070E000
:1003D0000E949E0208950E9464020E94C8010E9429
:1003E000AB01FDCF1F920F920FB60F9211242F93E6
:1003F0003F938F939F93AF93BF93809116019091FA
:100400001701A0911801B091190130911A010196BC
:10041000A11DB11D232F2D5F2D3720F02D570196E3
:10042000A11DB11D20931A0180931601909317010D
:10043000A0931801B09319018091120190911301BA
:10044000A0911401B09115010196A11DB11D8093D9
:10045000120190931301A0931401B0931501BF9161
:10046000AF919F918F913F912F910F900FBE0F9061
:100470001F901895EF92FF920F931F937B018C01B1
:100480008FB7F894409116015091170160911801AF
:10049000709119018FBF2FB7F89480911601909138
:1004A0001701A0911801B09119012FBF841B950B62
:1004B000A60BB70BE816F9060A071B0760F71F9192
:1004C0000F91FF90EF900895789484B5826084BD79
:1004D00084B5816084BD85B5826085BD85B5816048
:1004E00085BDEEE6F0E0808181608083E1E8F0E0A8
:1004F000808182608083808181608083E0E8F0E099
:10050000808181608083E1EBF0E080818460808382
:10051000E0EBF0E0808181608083EAE7F0E08081B9
:100520008460808380818260808380818160808319
:100530008081806880831092C10008951F93CF93BB
:10054000DF93182FEB0161E00E94F702E12FF0E04A
:10055000E255FF4F8491833051F480918000806890
:1005600080938000D0938900C09388003CC0843081
:1005700051F480918000806280938000D0938B0042
:10058000C0938A0030C0813039F4209729F184B5B6
:10059000806884BDC7BD27C0823039F42097E1F060
:1005A00084B5806284BDC8BD1EC0863041F4809190
:1005B000B00080688093B000C093B30014C087304F
:1005C00041F48091B00080628093B000C093B40089
:1005D0000AC0C038D1051CF4812F60E002C0812F11
:1005E00061E00E941703DF91CF911F910895282F9A
:1005F00030E0C90186569F4FFC0194912A573F4F26
:10060000F9018491882391F0E82FF0E0EE0FFF1FAD
:10061000E859FF4FA591B491662329F48C919095E8
:1006200089238C9308958C91892B8C930895482F5E
:1006300050E0CA0182559F4FFC012491CA018656A1
:100640009F4FFC0194914A575F4FFA013491332335
:10065000D1F1222331F1233021F4809180008F7772
:1006600005C0243031F4809180008F7D809380001C
:1006700018C0213019F484B58F7704C0223021F4DA
:1006800084B58F7D84BD0DC0263021F48091B000EB
:100690008F7705C0273029F48091B0008F7D80933B
:1006A000B000E32FF0E0EE0FFF1FEE58FF4FA591D3
:1006B000B491662329F48C91909589238C930895A5
:1006C0008C91892B8C9308951F920F920FB60F92E5
:1006D00011242F933F934F935F936F937F938F9347
:1006E0009F93AF93BF93EF93FF934091C600E09128
:1006F0009B01F0919C01CF01019660E870E00E949F
:100700008B069C0180919D0190919E0128173907CD
:1007100039F0E55EFE4F408330939C0120939B01AE
:10072000FF91EF91BF91AF919F918F917F916F91C9
:100730005F914F913F912F910F900FBE0F901F909F
:1007400018955F926F927F928F929F92AF92BF9215
:10075000CF92DF92EF92FF920F931F93CF93DF938D
:10076000EC013A014B01413482E458078FE06807FD
:1007700080E078070CF07FC060E874E88EE190E0DC
:10078000A40193010E94C0062150304040405040D7
:10079000CA01B90122E030E040E050E00E94C0060A
:1007A00059016A01A6019501209530954095509513
:1007B00094E0220F331F441F551F9A95D1F760E034
:1007C00074E284EF90E00E94C006CA01B9012FEFE5
:1007D00030E040E050E00E946C06A40193010E94CA
:1007E000C006C90181509F4F181619061CF4522EDD
:1007F0005A9403C055245394521A60E079E08DE373
:1008000090E0A40193010E94C00621503040404076
:100810005040CA01B90122E030E040E050E00E94BF
:10082000C006209530954095509583E0220F331FE8
:10083000441F551F8A95D1F760E074E284EF90E081
:100840000E94C006CA01B9012FEF30E040E050E03D
:100850000E946C06A40193010E94C006C901815048
:100860009F4F181619061CF4822F815002C081E098
:10087000821B851500F5E885F98581E090E00A88FE
:1008800002C0880F991F0A94E2F7808360E079E044
:100890008DE390E0A40193010E94C00621503040F6
:1008A00040405040CA01B90122E030E040E050E051
:1008B0000E94C00604C0E885F98510829501EC818C
:1008C000FD813083EE81FF812083EA85FB852081D5
:1008D00041E050E0CA010E8402C0880F991F0A94BB
:1008E000E2F7282B2083EA85FB852081CA010F844B
:1008F00002C0880F991F0A94E2F7282B2083EA850B
:10090000FB858081088802C0440F551F0A94E2F7D6
:10091000842B8083DF91CF911F910F91FF90EF90F7
:10092000DF90CF90BF90AF909F908F907F906F900F
:100930005F900895FC01A085B18521898C9190E09C
:10094000022E02C0959587950A94E2F780FFF6CFB4
:100950000484F585E02D6083089584E091E0909310
:10096000A00180939F018BE191E09093A20180937D
:10097000A10185EC90E09093A4018093A30184EC05
:1009800090E09093A6018093A50180EC90E0909375
:10099000A8018093A70181EC90E09093AA01809335
:1009A000A90186EC90E09093AC018093AB0184E0C8
:1009B0008093AD0183E08093AE0187E08093AF0127
:1009C00085E08093B00181E08093B10108950F9399
:1009D0001F93CF93DF938C01EB0109C02196D801BF
:1009E000ED91FC910190F081E02DC801099568819D
:1009F0006623A1F7DF91CF911F910F910895EF9298
:100A0000FF920F931F93CF93DF938C017B01EA0139
:100A10000CC0D7016D917D01D801ED91FC91019041
:100A2000F081E02DC80109952197209791F7DF917A
:100A3000CF911F910F91FF90EF90089571D008F41E
:100A400081E0089504D06894B111D9C00895BCD054
:100A500088F09F5790F0B92F9927B751A0F0D1F0A7
:100A6000660F771F881F991F1AF0BA95C9F712C031
:100A7000B13081F0C3D0B1E00895C0C0672F782FA6
:100A80008827B85F39F0B93FCCF38695779567959D
:100A9000B395D9F73EF490958095709561957F4F09
:100AA0008F4F9F4F0895E89409C097FB3EF49095AF
:100AB0008095709561957F4F8F4F9F4F9923A9F037
:100AC000F92F96E9BB279395F695879577956795C6
:100AD000B795F111F8CFFAF4BB0F11F460FF1BC00A
:100AE0006F5F7F4F8F4F9F4F16C0882311F096E99D
:100AF00011C0772321F09EE8872F762F05C066234B
:100B000071F096E8862F70E060E02AF09A95660F03
:100B1000771F881FDAF7880F9695879597F90895BC
:100B2000990F0008550FAA0BE0E8FEEF16161706FE
:100B3000E807F907C0F012161306E407F50798F066
:100B4000621B730B840B950B39F40A2661F0232B7F
:100B5000242B252B21F408950A2609F4A140A695FB
:100B60008FEF811D811D089597F99F6780E870E0E0
:100B700060E008959FEF80EC089500240A94161613
:100B8000170618060906089500240A94121613067B
:100B9000140605060895092E0394000C11F4882309
:100BA00052F0BB0F40F4BF2B11F460FF04C06F5F25
:100BB0007F4F8F4F9F4F089557FD9058440F551FFB
:100BC00059F05F3F71F04795880F97FB991F61F0CF
:100BD0009F3F79F087950895121613061406551F46
:100BE000F2CF4695F1DF08C0161617061806991FB2
:100BF000F1CF86957105610508940895E894BB27A7
:100C000066277727CB0197F908958ADF08F48FEFDD
:100C100008950BD0C0CFB1DF28F0B6DF18F09523D0
:100C200009F0A2CFA7CF1124EACFC6DFA0F3959F8A
:100C3000D1F3950F50E0551F629FF001729FBB27C3
:100C4000F00DB11D639FAA27F00DB11DAA1F649F6F
:100C50006627B00DA11D661F829F2227B00DA11D22
:100C6000621F739FB00DA11D621F839FA00D611DA8
:100C7000221F749F3327A00D611D231F849F600DC9
:100C8000211D822F762F6A2F11249F5750408AF002
:100C9000E1F088234AF0EE0FFF1FBB1F661F771F8E
:100CA000881F91505040A9F79E3F510570F05CCFCE
:100CB000A6CF5F3FECF3983EDCF38695779567957A
:100CC000B795F795E7959F5FC1F7FE2B880F911DAC
:100CD0009695879597F90895629FD001739FF001CB
:100CE000829FE00DF11D649FE00DF11D929FF00DBC
:100CF000839FF00D749FF00D659FF00D9927729FF3
:100D0000B00DE11DF91F639FB00DE11DF91FBD017D
:100D1000CF011124089597FB092E07260AD077FDED
:100D200004D049D006D000201AF4709561957F4F09
:100D30000895F6F7909581959F4F0895A1E21A2E98
:100D4000AA1BBB1BFD010DC0AA1FBB1FEE1FFF1F6F
:100D5000A217B307E407F50720F0A21BB30BE40BBF
:100D6000F50B661F771F881F991F1A9469F7609506
:100D70007095809590959B01AC01BD01CF010895C0
:100D800097FB092E05260ED057FD04D0D7DF0AD0D9
:100D9000001C38F450954095309521953F4F4F4FAA
:100DA0005F4F0895F6F790958095709561957F4F08
:100DB0008F4F9F4F0895AA1BBB1B51E107C0AA1F6D
:100DC000BB1FA617B70710F0A61BB70B881F991FEC
:100DD0005A95A9F780959095BC01CD010895EE0F25
:0E0DE000FF1F0590F491E02D0994F894FFCFC9
:0A0DEE00000000009A04E704FF046F
:00000001FF
