:100000000C9462000C948A000C948A000C948A0070
:100010000C948A000C948A000C948A000C948A0038
:100020000C948A000C948A000C948A000C948A0028
:100030000C948A000C948A000C948A000C948A0018
:100040000C9455040C948A000C94F3050C948A00CB
:100050000C948A000C948A000C948A000C948A00F8
:100060000C948A000C948A000000000024002700F1
:100070002A0000000000250028002B0000000000DE
:1000800023002600290004040404040404040202DA
:100090000202020203030303030301020408102007
:1000A0004080010204081020010204081020000012
:1000B0000007000201000003040600000000000029
:1000C00000003C0711241FBECFEFD8E0DEBFCDBF3C
:1000D00011E0A0E0B1E0E2E7F6E102C005900D9288
:1000E000AC30B107D9F711E0ACE0B1E001C01D922E
:1000F000A53DB107E1F710E0C4ECD0E004C02297C1
:10010000FE010E94330BC23CD107C9F70E944E0486
:100110000C94370B0C9400002F923F924F925F92F9
:100120006F927F928F929F92AF92BF92CF92DF9207
:10013000EF92FF920F931F933B014C0119012A018B
:100140008091200190912101892B09F062C00E94C9
:100150009D045B016C0160912D0170912E018091D5
:100160002F01909130012091310130913201409165
:100170003301509134010E94940820E030E040E0C7
:100180005FE30E944B0A7B018C01809129019091D1
:100190002A01A0912B01B0912C01A6019501281BE9
:1001A000390B4A0B5B0BCA01B9010E9495099B01EF
:1001B000AC01C801B7010E944B0A9B01AC016091E0
:1001C00025017091260180912701909128010E94BC
:1001D00094086093250170932601809327019093E2
:1001E0002801A0922901B0922A01C0922B01D0923D
:1001F0002C0160922D0170922E0180922F0190921D
:1002000030012092310130923201409233015092FC
:1002100034011F910F91FF90EF90DF90CF90BF902E
:10022000AF909F908F907F906F905F904F903F9096
:100230002F900895EF92FF920F931F939C018B01D3
:100240007A018AE0B9010E942D058BE0B8010E9475
:100250002D0589E0B7010E942D051F910F91FF9098
:10026000EF900895AF92BF92CF92DF92EF92FF92FC
:100270000F931F9380911E0190911F010297029787
:1002800030F468E572E080E090E00E94AB048DE01D
:1002900060E00E94A6058CE060E00E94A60561E097
:1002A00070E080E090E00E94AB0482E00E940F05C5
:1002B0005C018DE060E00E94A6058CE061E00E9498
:1002C000A60561E070E080E090E00E94AB0482E06F
:1002D0000E940F057C01CC24B7FCC094DC2CC60125
:1002E000B5010E9497095B016C010027F7FC00959E
:1002F000102FC801B7010E9497097B018C01C6012C
:10030000B50120E030E046E953E40E94F808882374
:100310006CF4C801B70120E030E046E953E40E94E4
:10032000F808882384F480E090E00FC0C801B7018A
:1003300020E030E046E953E40E94F80887FD03C05E
:1003400081E090E002C082E090E020911E013091B7
:100350001F0121303105D9F4009709F499C00297A3
:1003600009F0B5C0C601B501A80197010E94930824
:1003700020E030E04AE754E40E94FC0820E030E04E
:1003800040E050E00E94470A18165CF0A0C0C90186
:100390000297029708F47CC02430310509F078C038
:1003A000B9C08DEC9CECACE4BFEB80931001909352
:1003B0001101A0931201B09313018DEC9CECACE4FD
:1003C000BFE380930C0190930D01A0930E01B093B5
:1003D0000F0180E090E060E070E04FEF50E00E949D
:1003E0001A0183E090E090931F0180931E01E0903A
:1003F0000C01F0900D0100910E0110910F01C80148
:10040000B70120E030E040E85FEB0E94F808882365
:1004100054F40F2EF0E0EF2EF0E0FF2EF0E80F2F57
:10042000FFEB1F2FF02DE0920C01F0920D010093D5
:100430000E0110930F01E0901001F0901101009156
:10044000120110911301C801B70120E030E040E82B
:100450005FEB0E94F808882354F40F2EF0E0EF2E93
:10046000F0E0FF2EF0E80F2FFFEB1F2FF02DE092B2
:100470001001F092110100931201109313011F91CA
:100480000F91FF90EF90DF90CF90BF90AF900895C5
:1004900080E090E0A0E8BFE3809310019093110109
:1004A000A0931201B093130180930C0190930D015E
:1004B000A0930E01B0930F0180E090E06FEF70E029
:1004C00040E050E00E941A0181E090E08CCF8DEC7A
:1004D0009CECACE4BFE38093100190931101A093D6
:1004E0001201B09313018DEC9CECACE4BFEB809354
:1004F0000C0190930D01A0930E01B0930F0180E0C9
:1005000090E060E070E04FEF50E00E941A0182E05E
:1005100090E069CF80E090E0A0E0B0E0809310012F
:1005200090931101A0931201B093130180930C01D9
:1005300090930D01A0930E01B0930F018FEF90E007
:1005400060E070E040E050E00E941A0184E090E03A
:100550004ACFAF92BF92CF92DF92EF92FF920F936A
:100560001F937B018C0159016A0120E030E040E0DB
:1005700050E00E94470A18165CF488E061E00E948F
:10058000A605C801B70120E030E04AE753E40AC0FD
:1005900088E060E00E94A605C801B70120E030E0D5
:1005A0004AE753EC0E944B0A0E9464099B01AC018C
:1005B00086E0B9010E942D05C601B50120E030E0BA
:1005C00040E050E00E94470A18165CF487E061E0C2
:1005D0000E94A605C601B50120E030E04FE753E4D4
:1005E0000AC087E060E00E94A605C601B50120E0D0
:1005F00030E04FE753EC0E944B0A0E9464099B01D4
:10060000AC0185E0B9010E942D05C801B701A60122
:1006100095010E948C001F910F91FF90EF90DF9049
:10062000CF90BF90AF9008958DE061E00E94A60545
:100630008CE060E00E94A60561E070E080E090E060
:100640000E94AB0483E00E940F05BC01909324013B
:100650008093230182EC91E00E9483088091230122
:10066000909124018B309105ACF480E090E0A0E003
:10067000B0E08093140190931501A0931601B093FC
:1006800017018093180190931901A0931A01B09358
:100690001B012EC0C397CCF5609114017091150118
:1006A000809116019091170123E333E343E75FE361
:1006B0000E944B0A609314017093150180931601F8
:1006C00090931701609118017091190180911A019E
:1006D00090911B0123E333E343E75FE30E944B0A5E
:1006E000609318017093190180931A0190931B0174
:1006F00080911E0190911F01892BD9F084E090E038
:1007000090931F0180931E01089580E090E0A0E87F
:10071000BFE38093140190931501A0931601B09349
:1007200017018093180190931901A0931A01B093B7
:100730001B010895EF92FF920F931F930E941403E1
:1007400080911E0190911F01892BB1F460911401D9
:100750007091150180911601909117012DEC3CECE0
:100760004CEC5DE30E94F808882334F481E090E0CB
:1007700090931F0180931E010E94320160910C0131
:1007800070910D0180910E0190910F012091140143
:100790003091150140911601509117010E944B0AAA
:1007A0007B018C0160911001709111018091120107
:1007B00090911301209118013091190140911A0173
:1007C00050911B010E944B0A9B01AC01C801B7016B
:1007D0000E94A9021F910F91FF90EF90089510922F
:1007E000220182EC91E040E051EE60E070E00E9476
:1007F00030068CE061E00E9486058CE061E00E949A
:10080000A6058DE061E00E9486058DE061E00E9412
:10081000A60587E061E00E94860587E061E00E940E
:10082000A60588E061E00E94860588E061E00E94FC
:10083000A60580E090E0A0E8BFE380930C019093D0
:100840000D01A0930E01B0930F01809310019093BE
:100850001101A0931201B09313018093140190939E
:100860001501A0931601B09317018093180190937E
:100870001901A0931A01B0931B0182E090E09093BC
:100880001D0180931C01109221011092200181E032
:1008900090E090931F0180931E0108950E94D5045B
:1008A0000E94EF030E949A03FDCF1F920F920FB692
:1008B0000F9211242F933F938F939F93AF93BF93E6
:1008C0008091390190913A01A0913B01B0913C0196
:1008D00030913D010196A11DB11D232F2D5F2D37B4
:1008E00020F02D570196A11DB11D20933D0180934D
:1008F000390190933A01A0933B01B0933C01809160
:10090000350190913601A0913701B09138010196DF
:10091000A11DB11D8093350190933601A09337013D
:10092000B0933801BF91AF919F918F913F912F91DB
:100930000F900FBE0F901F9018958FB7F8942091CD
:10094000390130913A0140913B0150913C018FBFF8
:10095000B901CA010895EF92FF920F931F937B0193
:100960008C018FB7F8944091390150913A01609110
:100970003B0170913C018FBF2FB7F89480913901F2
:1009800090913A01A0913B01B0913C012FBF841B93
:10099000950BA60BB70BE816F9060A071B0760F7BD
:1009A0001F910F91FF90EF900895789484B5826025
:1009B00084BD84B5816084BD85B5826085BD85B503
:1009C000816085BDEEE6F0E0808181608083E1E8B2
:1009D000F0E0808182608083808181608083E0E8B4
:1009E000F0E0808181608083E1EBF0E080818460D1
:1009F0008083E0EBF0E0808181608083EAE7F0E0D3
:100A00008081846080838081826080838081816036
:100A100080838081806880831092C10008958F70E8
:100A2000909100019295990F990F907C982B90933B
:100A30007C0080917A00806480937A0080917A00B3
:100A400086FDFCCF2091780040917900942F80E0C2
:100A500030E0282B392BC90108951F93CF93DF93E2
:100A6000182FEB0161E00E948605E12FF0E0E255CE
:100A7000FF4F8491833051F480918000806880938F
:100A80008000D0938900C09388003CC0843051F42A
:100A900080918000806280938000D0938B00C0930F
:100AA0008A0030C0813039F4209729F184B58068FC
:100AB00084BDC7BD27C0823039F42097E1F084B5EA
:100AC000806284BDC8BD1EC0863041F48091B000F4
:100AD00080688093B000C093B30014C0873041F4A5
:100AE0008091B00080628093B000C093B4000AC0CF
:100AF000C038D1051CF4812F60E002C0812F61E075
:100B00000E94A605DF91CF911F910895282F30E014
:100B1000C90186569F4FFC0194912A573F4FF90116
:100B20008491882391F0E82FF0E0EE0FFF1FE85941
:100B3000FF4FA591B491662329F48C919095892358
:100B40008C9308958C91892B8C930895482F50E0B5
:100B5000CA0182559F4FFC012491CA0186569F4FBE
:100B6000FC0194914A575F4FFA0134913323D1F13C
:100B7000222331F1233021F4809180008F7705C04A
:100B8000243031F4809180008F7D8093800018C0E4
:100B9000213019F484B58F7704C0223021F484B554
:100BA0008F7D84BD0DC0263021F48091B0008F77F9
:100BB00005C0273029F48091B0008F7D8093B0006C
:100BC000E32FF0E0EE0FFF1FEE58FF4FA591B49119
:100BD000662329F48C91909589238C9308958C91A8
:100BE000892B8C9308951F920F920FB60F921124A8
:100BF0002F933F934F935F936F937F938F939F9325
:100C0000AF93BF93EF93FF934091C600E091BE0175
:100C1000F091BF01CF01019660E870E00E94CD0A1B
:100C20009C018091C0019091C1012817390739F0CA
:100C3000E25CFE4F40833093BF012093BE01FF91E1
:100C4000EF91BF91AF919F918F917F916F915F9144
:100C50004F913F912F910F900FBE0F901F901895BD
:100C60005F926F927F928F929F92AF92BF92CF923C
:100C7000DF92EF92FF920F931F93CF93DF93EC01DC
:100C80003A014B01413482E458078FE0680780E065
:100C900078070CF07FC060E874E88EE190E0A40172
:100CA00093010E94020B2150304040405040CA0145
:100CB000B90122E030E040E050E00E94020B59010F
:100CC0006A01A6019501209530954095509594E0D4
:100CD000220F331F441F551F9A95D1F760E074E22D
:100CE00084EF90E00E94020BCA01B9012FEF30E0BF
:100CF00040E050E00E94AE0AA40193010E94020B62
:100D0000C90181509F4F181619061CF4522E5A948F
:100D100003C055245394521A60E079E08DE390E0CB
:100D2000A40193010E94020B2150304040405040EA
:100D3000CA01B90122E030E040E050E00E94020B1D
:100D4000209530954095509583E0220F331F441F26
:100D5000551F8A95D1F760E074E284EF90E00E941D
:100D6000020BCA01B9012FEF30E040E050E00E94D1
:100D7000AE0AA40193010E94020BC90181509F4F4A
:100D8000181619061CF4822F815002C081E0821BC4
:100D9000851500F5E885F98581E090E00A8802C0B4
:100DA000880F991F0A94E2F7808360E079E08DE371
:100DB00090E0A40193010E94020B2150304040407A
:100DC0005040CA01B90122E030E040E050E00E940A
:100DD000020B04C0E885F98510829501EC81FD8144
:100DE0003083EE81FF812083EA85FB85208141E00D
:100DF00050E0CA010E8402C0880F991F0A94E2F7DE
:100E0000282B2083EA85FB852081CA010F8402C03C
:100E1000880F991F0A94E2F7282B2083EA85FB8527
:100E20008081088802C0440F551F0A94E2F7842B82
:100E30008083DF91CF911F910F91FF90EF90DF9012
:100E4000CF90BF90AF909F908F907F906F905F906A
:100E50000895FC01A085B18521898C9190E0022E36
:100E600002C0959587950A94E2F780FFF6CF048437
:100E7000F585E02D6083089585E091E09093C301AE
:100E80008093C2018EE391E09093C5018093C401E9
:100E900085EC90E09093C7018093C60184EC90E0CC
:100EA0009093C9018093C80180EC90E09093CB01AE
:100EB0008093CA0181EC90E09093CD018093CC01A6
:100EC00086EC90E09093CF018093CE0184E08093F4
:100ED000D00183E08093D10187E08093D20185E047
:100EE0008093D30181E08093D40108950F931F93E1
:100EF000CF93DF938C01EB0109C02196D801ED91CE
:100F0000FC910190F081E02DC8010995688166236C
:100F1000A1F7DF91CF911F910F910895EF92FF926A
:100F20000F931F93CF93DF938C017B01EA010CC0D9
:100F3000D7016D917D01D801ED91FC910190F08177
:100F4000E02DC80109952197209791F7DF91CF9166
:100F50001F910F91FF90EF9008950F931F938C01B5
:100F6000DC01ED91FC910190F081E02D6DE009959F
:100F7000D801ED91FC910190F081E02DC8016AE06B
:100F800009951F910F9108952F923F924F925F9272
:100F90006F927F928F929F92AF92BF92CF92DF9289
:100FA000EF92FF920F931F93DF93CF93CDB7DEB7EE
:100FB000A0970FB6F894DEBF0FBECDBF1C016A012B
:100FC0007B01411551056105710549F4DC01ED9185
:100FD000FC910190F081E02D60E3099554C08824D4
:100FE00099245401422E55246624772401E010E010
:100FF0000C0F1D1F080D191DC701B601A301920199
:101000000E94E00AF80160830894811C911CA11CD5
:10101000B11CC701B601A30192010E94E00AC901F7
:10102000DA016C017D01C114D104E104F104F1F68F
:1010300081E0E82EF12CEC0EFD1EE80CF91C3E01BF
:101040000894611C711CD501C4010197A109B10963
:101050006C01C818D90814C0F601EE0DFF1D60819F
:101060006A3010F4605D01C0695CD101ED91FC91C2
:101070000190F081E02DC10109950894E108F10883
:101080006E147F0449F7A0960FB6F894DEBF0FBE2A
:10109000CDBFCF91DF911F910F91FF90EF90DF9027
:1010A000CF90BF90AF909F908F907F906F905F9008
:1010B0004F903F902F900895EF92FF920F931F93C0
:1010C000CF93DF93EC017A018B0177FF0FC0E881AA
:1010D000F9810190F081E02D6DE209951095009560
:1010E000F094E094E11CF11C011D111DCE01B8012A
:1010F000A7012AE00E94C407DF91CF911F910F91B1
:10110000FF90EF9008950F931F938C01AB0166271A
:1011100057FD6095762F0E945C08C8010E94AD07BC
:101120001F910F9108955058BB27AA270ED075C163
:1011300066D130F06BD120F031F49F3F11F41EF4F2
:101140005BC10EF4E095E7FB51C1E92F77D180F345
:10115000BA17620773078407950718F071F49EF5B4
:101160008FC10EF4E0950B2EBA2FA02D0B01B90103
:1011700090010C01CA01A0011124FF27591B99F00D
:10118000593F50F4503E68F11A16F040A22F232F19
:10119000342F4427585FF3CF469537952795A79569
:1011A000F0405395C9F77EF41F16BA0B620B730B10
:1011B000840BBAF09150A1F0FF0FBB1F661F771F81
:1011C000881FC2F70EC0BA0F621F731F841F48F436
:1011D000879577956795B795F7959E3F08F0B3CFBC
:1011E0009395880F08F09927EE0F979587950895A6
:1011F000D9D008F481E008950CD00FC107D140F098
:10120000FED030F021F45F3F19F0F0C0511139C128
:10121000F3C014D198F39923C9F35523B1F3951B67
:10122000550BBB27AA2762177307840738F09F5F07
:101230005F4F220F331F441FAA1FA9F333D00E2E76
:101240003AF0E0E830D091505040E695001CCAF7E3
:1012500029D0FE2F27D0660F771F881FBB1F2617A8
:1012600037074807AB07B0E809F0BB0B802DBF017B
:10127000FF2793585F4F2AF09E3F510568F0B6C094
:1012800000C15F3FECF3983EDCF386957795679558
:10129000B795F7959F5FC9F7880F911D969587952C
:1012A00097F90895E1E0660F771F881FBB1F62174B
:1012B00073078407BA0720F0621B730B840BBA0B09
:1012C000EE1F88F7E095089504D06894B111D9C055
:1012D0000895BCD088F09F5790F0B92F9927B75147
:1012E000A0F0D1F0660F771F881F991F1AF0BA95EA
:1012F000C9F712C0B13081F0C3D0B1E00895C0C0C9
:10130000672F782F8827B85F39F0B93FCCF38695DF
:1013100077956795B395D9F73EF49095809570953C
:1013200061957F4F8F4F9F4F0895E89409C097FBB9
:101330003EF490958095709561957F4F8F4F9F4FAC
:101340009923A9F0F92F96E9BB279395F6958795F0
:1013500077956795B795F111F8CFFAF4BB0F11F4B3
:1013600060FF1BC06F5F7F4F8F4F9F4F16C088235A
:1013700011F096E911C0772321F09EE8872F762F90
:1013800005C0662371F096E8862F70E060E02AF0D1
:101390009A95660F771F881FDAF7880F96958795BD
:1013A00097F90895990F0008550FAA0BE0E8FEEF92
:1013B00016161706E807F907C0F012161306E40719
:1013C000F50798F0621B730B840B950B39F40A2612
:1013D00061F0232B242B252B21F408950A2609F4F0
:1013E000A140A6958FEF811D811D089597F99F67F4
:1013F00080E870E060E008959FEF80EC089500249D
:101400000A941616170618060906089500240A9469
:1014100012161306140605060895092E0394000CEF
:1014200011F4882352F0BB0F40F4BF2B11F460FF7E
:1014300004C06F5F7F4F8F4F9F4F089557FD9058A7
:10144000440F551F59F05F3F71F04795880F97FB88
:10145000991F61F09F3F79F0879508951216130642
:101460001406551FF2CF4695F1DF08C01616170671
:101470001806991FF1CF86957105610508940895A6
:10148000E894BB2766277727CB0197F908958ADF71
:1014900008F48FEF08950BD0C0CFB1DF28F0B6DF8E
:1014A00018F0952309F0A2CFA7CF1124EACFC6DF09
:1014B000A0F3959FD1F3950F50E0551F629FF00167
:1014C000729FBB27F00DB11D639FAA27F00DB11DC0
:1014D000AA1F649F6627B00DA11D661F829F222749
:1014E000B00DA11D621F739FB00DA11D621F839FD0
:1014F000A00D611D221F749F3327A00D611D231FA6
:10150000849F600D211D822F762F6A2F11249F57F3
:1015100050408AF0E1F088234AF0EE0FFF1FBB1F16
:10152000661F771F881F91505040A9F79E3F5105B5
:1015300070F05CCFA6CF5F3FECF3983EDCF386956E
:1015400077956795B795F795E7959F5FC1F7FE2B60
:10155000880F911D9695879597F90895629FD00100
:10156000739FF001829FE00DF11D649FE00DF11D5E
:10157000929FF00D839FF00D749FF00D659FF00D0D
:101580009927729FB00DE11DF91F639FB00DE11DFA
:10159000F91FBD01CF011124089597FB092E0726DD
:1015A0000AD077FD04D049D006D000201AF47095F7
:1015B00061957F4F0895F6F7909581959F4F089517
:1015C000A1E21A2EAA1BBB1BFD010DC0AA1FBB1F47
:1015D000EE1FFF1FA217B307E407F50720F0A21BB9
:1015E000B30BE40BF50B661F771F881F991F1A9426
:1015F00069F760957095809590959B01AC01BD0150
:10160000CF01089597FB092E05260ED057FD04D073
:10161000D7DF0AD0001C38F45095409530952195BD
:101620003F4F4F4F5F4F0895F6F790958095709517
:1016300061957F4F8F4F9F4F0895AA1BBB1B51E1B0
:1016400007C0AA1FBB1FA617B70710F0A61BB70B32
:10165000881F991F5A95A9F780959095BC01CD01D7
:101660000895EE0FFF1F0590F491E02D0994F89472
:02167000FFCFAA
:0C1672000100000000290776078E070029
:00000001FF
