:100000000C9462000C948A000C948A000C948A0070
:100010000C948A000C948A000C948A000C948A0038
:100020000C948A000C948A000C948A000C948A0028
:100030000C948A000C948A000C948A000C948A0018
:100040000C940C040C948A000C949C050C948A006B
:100050000C948A000C948A000C948A000C948A00F8
:100060000C948A000C948A000000000024002700F1
:100070002A0000000000250028002B0000000000DE
:1000800023002600290004040404040404040202DA
:100090000202020203030303030301020408102007
:1000A0004080010204081020010204081020000012
:1000B0000007000201000003040600000000000029
:1000C0000000E50611241FBECFEFD8E0DEBFCDBF94
:1000D00011E0A0E0B1E0EAEEF5E102C005900D927A
:1000E000A631B107D9F711E0A6E1B1E001C01D9238
:1000F000A23DB107E1F710E0C4ECD0E004C02297C4
:10010000FE010E94EF0AC23CD107C9F70E94050414
:100110000C94F30A0C9400008DE060E00E944F05FF
:100120008CE060E00E944F0562E370E080E090E0C8
:100130000E94540480E00E94B80490932C018093A4
:100140002B01855690408B52914018F081E08093AE
:100150002D010895AF92BF92CF92DF92EF92FF925E
:100160000F931F937B018C0159016A0120E030E05D
:1001700040E050E00E94030A18165CF488E061E059
:100180000E944F05C801B70120E030E04FE753E47B
:100190000AC088E060E00E944F05C801B70120E076
:1001A00030E04FE753EC0E94070A0E9420099B01B0
:1001B000AC0186E0B9010E94D604C601B50120E079
:1001C00030E040E050E00E94030A18165CF487E03B
:1001D00061E00E944F05C601B50120E030E04BE729
:1001E00053E40AC087E060E00E944F05C601B501F4
:1001F00020E030E04BE753EC0E94070A0E94200900
:100200009B01AC0185E0B9010E94D6041F910F91BA
:10021000FF90EF90DF90CF90BF90AF900895AF9296
:10022000BF92CF92DF92EF92FF920F931F938DE0D8
:1002300060E00E944F058CE060E00E944F0561E0A5
:1002400070E080E090E00E94540482E00E94B804D4
:100250005C018DE060E00E944F058CE061E00E944F
:100260004F0561E070E080E090E00E94540482E07D
:100270000E94B8047C01CC24B7FCC094DC2CC601DD
:10028000B5010E9453095B016C010027F7FC009542
:10029000102FC801B7010E9453097B018C0180E037
:1002A00090E0A0E8BFE38093160190931701A0931C
:1002B0001801B093190180931A0190931B01A09328
:1002C0001C01B0931D01C601B50120E030E046E9F4
:1002D00053E40E94B40888230CF052C0C801B7014F
:1002E00020E030E046E953E40E94B40888230CF093
:1002F00052C089E06FEF70E00E94D6048BE060E0AE
:1003000070E00E94D60482E390E0909328018093ED
:10031000270180912601882389F086E696E6A6E6E5
:10032000BFE38093160190931701A0931801B09337
:10033000190180E090E0A0E8BFEB10C080E090E001
:10034000A0E8BFEB8093160190931701A0931801CA
:10035000B093190186E696E6A6E6BFE380931A01FC
:1003600090931B01A0931C01B0931D018091290162
:1003700090912A01019690932A0180932901C1C08E
:10038000C801B70120E030E046E953E40E94B40818
:1003900088230CF0A4C010922A0110922901209108
:1003A00027013091280112161306A4F58091260129
:1003B000882389F086E696E6A6E6BFE380931601D9
:1003C00090931701A0931801B093190180E090E079
:1003D000A0E0B0E010C080E090E0A0E0B0E080934A
:1003E000160190931701A0931801B093190186E6A6
:1003F00096E6A6E6BFE380931A0190931B01A093B3
:100400001C01B0931D0121503040309328012093EE
:10041000270177C0C601B501A80197010E944F08C6
:1004200020E030E04AE754E40E94B8087B018C01E8
:1004300089E060E070E00E94D6048BE060E070E04C
:100440000E94D604C801B70120E030E040E050E04F
:100450000E94B4088823F4F481E080932601C80147
:10046000B701A80197010E9450089B01AC0160915F
:100470001A0170911B0180911C0190911D010E9435
:10048000500860931A0170931B0180931C01909394
:100490001D0137C08FEB91E060E071E00E947507AD
:1004A00010922601C801B70120E030E040E050EC96
:1004B0000E94070A9B01AC0160911601709117011F
:1004C00080911801909119010E94500860931601C3
:1004D00070931701809318019093190112C0109224
:1004E00028011092270110922A011092290189E017
:1004F00060E070E00E94D6048BE06FEF70E00E9435
:10050000D604E0901601F0901701009118011091A7
:100510001901C801B70120E030E040E85FEB0E941C
:10052000B408882354F40F2EF0E0EF2EF0E0FF2EF5
:10053000F0E80F2FFFEB1F2FF02DE0921601F09245
:1005400017010093180110931901E0901A01F0901F
:100550001B0100911C0110911D01C801B70120E091
:1005600030E040E85FEB0E94B408882354F40F2E7B
:10057000F0E0EF2EF0E0FF2EF0E80F2FFFEB1F2F43
:10058000F02DE0921A01F0921B0100931C011093D0
:100590001D011F910F91FF90EF90DF90CF90BF90C2
:1005A000AF9008958DE061E00E944F058CE060E01F
:1005B0000E944F0561E070E080E090E00E945404EA
:1005C00083E00E94B804BC0190932F0180932E0118
:1005D0008FEB91E00E943F0880912E0190912F01B6
:1005E000893C91052CF480E090E0A0E0B0E034C0BC
:1005F000875B93406CF560911E0170911F018091A3
:1006000020019091210123E333E343E75FE30E945C
:10061000070A60931E0170931F018093200190933D
:100620002101609122017091230180912401909118
:10063000250123E333E343E75FE30E94070A609366
:100640002201709323018093240190932501089542
:1006500080E090E0A0E8BFE380931E0190931F012B
:10066000A0932001B0932101809322019093230154
:10067000A0932401B09325010895EF92FF920F9368
:100680001F9380912D01882309F463C08091290173
:1006900090912A018D5B9240C4F089E060E070E0A7
:1006A0000E94D6048BE060E070E00E94D6048AE0ED
:1006B0006FEF70E00E94D60460E070E080E090E0B0
:1006C0009B01AC010E94AA00FFCF0E940F01809104
:1006D00030019091310197FD06C00E94D202109224
:1006E00031011092300180913001909131010196D9
:1006F0009093310180933001609116017091170140
:10070000809118019091190120911E0130911F01D3
:1007100040912001509121010E94070A7B018C0128
:1007200060911A0170911B0180911C0190911D0133
:100730002091220130912301409124015091250103
:100740000E94070A9B01AC01C801B7010E94AA00E0
:1007500002C00E948C001F910F91FF90EF900895AE
:1007600010922D018FEB91E040E051EE60E070E0DF
:100770000E94D9058CE061E00E942F058CE061E0C9
:100780000E944F058DE061E00E942F058DE061E041
:100790000E944F0587E061E00E942F0587E061E03D
:1007A0000E944F0588E061E00E942F0588E061E02B
:1007B0000E944F0580E090E0A0E8BFE3809316011F
:1007C00090931701A0931801B093190180931A0117
:1007D00090931B01A0931C01B0931D0180931E01F7
:1007E00090931F01A0932001B093210180932201D7
:1007F00090932301A0932401B09325011092260128
:10080000109228011092270108950E947E040E94F0
:10081000B0030E943D03FDCF1F920F920FB60F92BF
:1008200011242F933F938F939F93AF93BF93809106
:10083000360190913701A0913801B0913901309182
:100840003A010196A11DB11D232F2D5F2D3720F0F8
:100850002D570196A11DB11D20933A0180933601B9
:1008600090933701A0933801B09339018091320100
:1008700090913301A0913401B09135010196A11DF1
:10088000B11D8093320190933301A0933401B09352
:100890003501BF91AF919F918F913F912F910F9013
:1008A0000FBE0F901F901895EF92FF920F931F931A
:1008B0007B018C018FB7F89440913601509137013C
:1008C00060913801709139018FBF2FB7F8948091F2
:1008D000360190913701A0913801B09139012FBFB5
:1008E000841B950BA60BB70BE816F9060A071B0726
:1008F00060F71F910F91FF90EF900895789484B561
:10090000826084BD84B5816084BD85B5826085BD0B
:1009100085B5816085BDEEE6F0E0808181608083F1
:10092000E1E8F0E080818260808380818160808363
:10093000E0E8F0E0808181608083E1EBF0E080819D
:1009400084608083E0EBF0E0808181608083EAE76F
:10095000F0E08081846080838081826080838081F8
:10096000816080838081806880831092C1000895B7
:100970008F7090910A019295990F990F907C982B06
:1009800090937C0080917A00806480937A008091BB
:100990007A0086FDFCCF2091780040917900942F59
:1009A00080E030E0282B392BC90108951F93CF93A5
:1009B000DF93182FEB0161E00E942F05E12FF0E09B
:1009C000E255FF4F8491833051F48091800080681C
:1009D00080938000D0938900C09388003CC084300D
:1009E00051F480918000806280938000D0938B00CE
:1009F000C0938A0030C0813039F4209729F184B542
:100A0000806884BDC7BD27C0823039F42097E1F0EB
:100A100084B5806284BDC8BD1EC0863041F480911B
:100A2000B00080688093B000C093B30014C08730DA
:100A300041F48091B00080628093B000C093B40014
:100A40000AC0C038D1051CF4812F60E002C0812F9C
:100A500061E00E944F05DF91CF911F910895282FEB
:100A600030E0C90186569F4FFC0194912A573F4FB1
:100A7000F9018491882391F0E82FF0E0EE0FFF1F39
:100A8000E859FF4FA591B491662329F48C91909574
:100A900089238C9308958C91892B8C930895482FEA
:100AA00050E0CA0182559F4FFC012491CA0186562D
:100AB0009F4FFC0194914A575F4FFA0134913323C1
:100AC000D1F1222331F1233021F4809180008F77FE
:100AD00005C0243031F4809180008F7D80938000A8
:100AE00018C0213019F484B58F7704C0223021F466
:100AF00084B58F7D84BD0DC0263021F48091B00077
:100B00008F7705C0273029F48091B0008F7D8093C6
:100B1000B000E32FF0E0EE0FFF1FEE58FF4FA5915E
:100B2000B491662329F48C91909589238C93089530
:100B30008C91892B8C9308951F920F920FB60F9270
:100B400011242F933F934F935F936F937F938F93D2
:100B50009F93AF93BF93EF93FF934091C600E091B3
:100B6000BB01F091BC01CF01019660E870E00E94EA
:100B7000890A9C018091BD019091BE012817390717
:100B800039F0E55CFE4F40833093BC012093BB01FC
:100B9000FF91EF91BF91AF919F918F917F916F9155
:100BA0005F914F913F912F910F900FBE0F901F902B
:100BB00018955F926F927F928F929F92AF92BF92A1
:100BC000CF92DF92EF92FF920F931F93CF93DF9319
:100BD000EC013A014B01413482E458078FE0680789
:100BE00080E078070CF07FC060E874E88EE190E068
:100BF000A40193010E94BE0A215030404040504061
:100C0000CA01B90122E030E040E050E00E94BE0A93
:100C100059016A01A601950120953095409550959E
:100C200094E0220F331F441F551F9A95D1F760E0BF
:100C300074E284EF90E00E94BE0ACA01B9012FEF6E
:100C400030E040E050E00E946A0AA40193010E9453
:100C5000BE0AC90181509F4F181619061CF4522E66
:100C60005A9403C055245394521A60E079E08DE3FE
:100C700090E0A40193010E94BE0A21503040404000
:100C80005040CA01B90122E030E040E050E00E944B
:100C9000BE0A209530954095509583E0220F331F72
:100CA000441F551F8A95D1F760E074E284EF90E00D
:100CB0000E94BE0ACA01B9012FEF30E040E050E0C7
:100CC0000E946A0AA40193010E94BE0AC9018150D0
:100CD0009F4F181619061CF4822F815002C081E024
:100CE000821B851500F5E885F98581E090E00A888A
:100CF00002C0880F991F0A94E2F7808360E079E0D0
:100D00008DE390E0A40193010E94BE0A215030407F
:100D100040405040CA01B90122E030E040E050E0DC
:100D20000E94BE0A04C0E885F98510829501EC8115
:100D3000FD813083EE81FF812083EA85FB85208160
:100D400041E050E0CA010E8402C0880F991F0A9446
:100D5000E2F7282B2083EA85FB852081CA010F84D6
:100D600002C0880F991F0A94E2F7282B2083EA8596
:100D7000FB858081088802C0440F551F0A94E2F762
:100D8000842B8083DF91CF911F910F91FF90EF9083
:100D9000DF90CF90BF90AF909F908F907F906F909B
:100DA0005F900895FC01A085B18521898C9190E028
:100DB000022E02C0959587950A94E2F780FFF6CF40
:100DC0000484F585E02D608308958FE091E0909391
:100DD000C0018093BF018BE391E09093C2018093A7
:100DE000C10185EC90E09093C4018093C30184EC31
:100DF00090E09093C6018093C50180EC90E09093C1
:100E0000C8018093C70181EC90E09093CA01809360
:100E1000C90186EC90E09093CC018093CB0184E0F3
:100E20008093CD0183E08093CE0187E08093CF0152
:100E300085E08093D00181E08093D10108950F93E4
:100E40001F93CF93DF938C01EB0109C02196D8014A
:100E5000ED91FC910190F081E02DC8010995688128
:100E60006623A1F7DF91CF911F910F910895EF9223
:100E7000FF920F931F93CF93DF938C017B01EA01C5
:100E80000CC0D7016D917D01D801ED91FC910190CD
:100E9000F081E02DC80109952197209791F7DF9106
:100EA000CF911F910F91FF90EF900895DC01ED918C
:100EB000FC910280F381E02D099508950F931F9313
:100EC0008C01DC01ED91FC910190F081E02D6DE051
:100ED0000995D801ED91FC910190F081E02DC801B8
:100EE0006AE009951F910F9108950F931F938C014C
:100EF0000E945607C8010E945E071F910F91089536
:100F00002F923F924F925F926F927F928F929F9219
:100F1000AF92BF92CF92DF92EF92FF920F931F9307
:100F2000DF93CF93CDB7DEB7A0970FB6F894DEBFAF
:100F30000FBECDBF1C016A017B0141155105610542
:100F4000710549F4DC01ED91FC910190F081E02DF7
:100F500060E3099554C0882499245401422E5524F5
:100F60006624772401E010E00C0F1D1F080D191DE9
:100F7000C701B601A30192010E949C0AF801608397
:100F80000894811C911CA11CB11CC701B601A301CE
:100F900092010E949C0AC901DA016C017D01C11411
:100FA000D104E104F104F1F681E0E82EF12CEC0E1D
:100FB000FD1EE80CF91C3E010894611C711CD50152
:100FC000C4010197A109B1096C01C818D90814C05E
:100FD000F601EE0DFF1D60816A3010F4605D01C006
:100FE000695CD101ED91FC910190F081E02DC1018E
:100FF00009950894E108F1086E147F0449F7A0965A
:101000000FB6F894DEBF0FBECDBFCF91DF911F9119
:101010000F91FF90EF90DF90CF90BF90AF909F9097
:101020008F907F906F905F904F903F902F9008959A
:10103000EF92FF920F931F93CF93DF93EC017A010E
:101040008B0177FF0FC0E881F9810190F081E02DDD
:101050006DE2099510950095F094E094E11CF11C67
:10106000011D111DCE01B801A7012AE00E948007D1
:10107000DF91CF911F910F91FF90EF9008950F9303
:101080001F938C01AB01662757FD6095762F0E9458
:101090001808C8010E945E071F910F9108955058CB
:1010A000BB27AA270ED075C166D130F06BD120F0D6
:1010B00031F49F3F11F41EF45BC10EF4E095E7FBA1
:1010C00051C1E92F77D180F3BA17620773078407FC
:1010D000950718F071F49EF58FC10EF4E0950B2E74
:1010E000BA2FA02D0B01B90190010C01CA01A0017A
:1010F0001124FF27591B99F0593F50F4503E68F1D5
:101100001A16F040A22F232F342F4427585FF3CF15
:10111000469537952795A795F0405395C9F77EF4E6
:101120001F16BA0B620B730B840BBAF09150A1F02F
:10113000FF0FBB1F661F771F881FC2F70EC0BA0FB5
:10114000621F731F841F48F4879577956795B7953D
:10115000F7959E3F08F0B3CF9395880F08F0992735
:10116000EE0F979587950895D9D008F481E00895FA
:101170000CD00FC107D140F0FED030F021F45F3F1A
:1011800019F0F0C0511139C1F3C014D198F399236B
:10119000C9F35523B1F3951B550BBB27AA2762173B
:1011A0007307840738F09F5F5F4F220F331F441F80
:1011B000AA1FA9F333D00E2E3AF0E0E830D09150B8
:1011C0005040E695001CCAF729D0FE2F27D0660FA5
:1011D000771F881FBB1F261737074807AB07B0E8E4
:1011E00009F0BB0B802DBF01FF2793585F4F2AF0FA
:1011F0009E3F510568F0B6C000C15F3FECF3983EDA
:10120000DCF3869577956795B795F7959F5FC9F756
:10121000880F911D9695879597F90895E1E0660FDF
:10122000771F881FBB1F621773078407BA0720F058
:10123000621B730B840BBA0BEE1F88F7E0950895C1
:1012400004D06894B111D9C00895BCD088F09F57DC
:1012500090F0B92F9927B751A0F0D1F0660F771F02
:10126000881F991F1AF0BA95C9F712C0B13081F0E2
:10127000C3D0B1E00895C0C0672F782F8827B85F2A
:1012800039F0B93FCCF3869577956795B395D9F743
:101290003EF490958095709561957F4F8F4F9F4F4D
:1012A0000895E89409C097FB3EF490958095709559
:1012B00061957F4F8F4F9F4F9923A9F0F92F96E9A2
:1012C000BB279395F695879577956795B795F11117
:1012D000F8CFFAF4BB0F11F460FF1BC06F5F7F4FB4
:1012E0008F4F9F4F16C0882311F096E911C07723C6
:1012F00021F09EE8872F762F05C0662371F096E8CF
:10130000862F70E060E02AF09A95660F771F881F9D
:10131000DAF7880F9695879597F90895990F000841
:10132000550FAA0BE0E8FEEF16161706E807F907B7
:10133000C0F012161306E407F50798F0621B730B52
:10134000840B950B39F40A2661F0232B242B252BD3
:1013500021F408950A2609F4A140A6958FEF811D76
:10136000811D089597F99F6780E870E060E0089517
:101370009FEF80EC089500240A94161617061806AD
:101380000906089500240A94121613061406050689
:101390000895092E0394000C11F4882352F0BB0F1A
:1013A00040F4BF2B11F460FF04C06F5F7F4F8F4F7D
:1013B0009F4F089557FD9058440F551F59F05F3FB8
:1013C00071F04795880F97FB991F61F09F3F79F067
:1013D00087950895121613061406551FF2CF4695E9
:1013E000F1DF08C0161617061806991FF1CF86956B
:1013F0007105610508940895E894BB27662777274F
:10140000CB0197F908958ADF08F48FEF08950BD088
:10141000C0CFB1DF28F0B6DF18F0952309F0A2CFD6
:10142000A7CF1124EACFC6DFA0F3959FD1F3950F84
:1014300050E0551F629FF001729FBB27F00DB11D58
:10144000639FAA27F00DB11DAA1F649F6627B00DE8
:10145000A11D661F829F2227B00DA11D621F739FD1
:10146000B00DA11D621F839FA00D611D221F749FDF
:101470003327A00D611D231F849F600D211D822F26
:10148000762F6A2F11249F5750408AF0E1F088236D
:101490004AF0EE0FFF1FBB1F661F771F881F91507A
:1014A0005040A9F79E3F510570F05CCFA6CF5F3F3B
:1014B000ECF3983EDCF3869577956795B795F795AD
:1014C000E7959F5FC1F7FE2B880F911D9695879535
:1014D00097F90895629FD001739FF001829FE00DFC
:1014E000F11D649FE00DF11D929FF00D839FF00DA3
:1014F000749FF00D659FF00D9927729FB00DE11D4F
:10150000F91F639FB00DE11DF91FBD01CF0111242B
:10151000089597FB092E07260AD077FD04D049D0FD
:1015200006D000201AF4709561957F4F0895F6F764
:10153000909581959F4F0895A1E21A2EAA1BBB1B7F
:10154000FD010DC0AA1FBB1FEE1FFF1FA217B3078F
:10155000E407F50720F0A21BB30BE40BF50B661FA5
:10156000771F881F991F1A9469F760957095809569
:1015700090959B01AC01BD01CF01089597FB092E09
:1015800005260ED057FD04D0D7DF0AD0001C38F452
:1015900050954095309521953F4F4F4F5F4F08959F
:1015A000F6F790958095709561957F4F8F4F9F4F7F
:1015B0000895AA1BBB1B51E107C0AA1FBB1FA6179A
:1015C000B70710F0A61BB70B881F991F5A95A9F7EC
:1015D00080959095BC01CD010895EE0FFF1F0590F9
:0A15E000F491E02D0994F894FFCF78
:1015EA00474F544F204C454654000100000000D29A
:0615FA00061F0737070081
:00000001FF
