:100000000C9462000C948A000C948A000C948A0070
:100010000C948A000C948A000C948A000C948A0038
:100020000C948A000C948A000C948A000C948A0028
:100030000C948A000C948A000C948A000C948A0018
:100040000C94DA010C948A000C946A030C948A00D4
:100050000C948A000C948A000C948A000C948A00F8
:100060000C948A000C948A000000000024002700F1
:100070002A0000000000250028002B0000000000DE
:1000800023002600290004040404040404040202DA
:100090000202020203030303030301020408102007
:1000A0004080010204081020010204081020000012
:1000B0000007000201000003040600000000000029
:1000C0000000B30411241FBECFEFD8E0DEBFCDBFC8
:1000D00011E0A0E0B1E0E0E9FFE002C005900D9280
:1000E000A431B107D9F711E0A4E1B1E001C01D923C
:1000F000AC3BB107E1F710E0C4ECD0E004C02297BC
:10010000FE010E94C207C23CD107C9F70E94D30179
:100110000C94C6070C940000AF92BF92CF92DF926E
:10012000EF92FF920F931F938DE060E00E941D03FA
:100130008CE060E00E941D0361E070E080E090E0F0
:100140000E94220282E00E9486026C018DE060E043
:100150000E941D038CE061E00E941D0361E070E0DD
:1001600080E090E00E94220282E00E9486029C01D0
:1001700081E0243F3807A4F4B901882777FD8095F2
:10018000982F0E944E069B01AC0160E070E88EE063
:1001900094E40E944E0520E030E847EF53E423C08A
:1001A00094EFC91691E0D9065CF00F2EF0E0AF2E67
:1001B000F0E0BF2EF0E0CF2EF0E0DF2EF02D17C0E4
:1001C000B601882777FD8095982F0E944E069B01E7
:1001D000AC0160E070E080EF93E40E944E0520E007
:1001E00030E845EC53EC0E94B3055B016C01C6019D
:1001F000B5012AE939E949E95EE30E94DA067B01A3
:100200008C01C601B50120E030E040E251E40E94DB
:10021000DA0620E030E040E050E00E944F052FE693
:1002200032E143E85AE30E94DA069B01AC01C801BF
:10023000B7010E944F057B018C01C601B50120E08A
:1002400030E040E251E40E94B3052AE939E949E18E
:100250005FE30E94DA069B01AC01C801B7010E946E
:100260004F0520E030E048E453E40E94DA060E94A3
:100270001B067B018C0128EC30E0E20EF31EB70177
:10028000882777FD8095982F28E33FEFE20EF31E35
:100290000E944E06609318017093190180931A0111
:1002A00090931B0168EC70E06E197F09882777FD39
:1002B0008095982F0E944E0660931401709315014B
:1002C00080931601909317011F910F91FF90EF906B
:1002D000DF90CF90BF90AF9008950E948C00609106
:1002E00014017091150180911601909117010E94DF
:1002F0001B069B01AC0186E0B9010E94A40260913B
:1003000018017091190180911A0190911B010E94AE
:100310001B069B01AC0185E0B9010E94A4026AE0C2
:1003200070E080E090E00E94220208950F931F93F6
:1003300009EA11E0C80140E051EE60E070E00E947F
:10034000A703C80160E071E00E9443058CE061E012
:100350000E94FD028CE061E00E941D038DE061E0DF
:100360000E94FD028DE061E00E941D0387E061E0D4
:100370000E94FD0287E061E00E941D0388E061E0C9
:100380000E94FD0288E061E00E941D0386E060E0BB
:1003900070E00E94A40285E060E070E00E94A40288
:1003A0001F910F9108950E944C020E9496010E9495
:1003B0006D01FDCF1F920F920FB60F9211242F9354
:1003C0003F938F939F93AF93BF9380912001909120
:1003D0002101A0912201B0912301309124010196C5
:1003E000A11DB11D232F2D5F2D3720F02D57019614
:1003F000A11DB11D20932401809320019093210120
:10040000A0932201B093230180911C0190911D01C2
:10041000A0911E01B0911F010196A11DB11D8093F5
:100420001C0190931D01A0931E01B0931F01BF9169
:10043000AF919F918F913F912F910F900FBE0F9091
:100440001F901895EF92FF920F931F937B018C01E1
:100450008FB7F894409120015091210160912201C1
:10046000709123018FBF2FB7F89480912001909154
:100470002101A0912201B09123012FBF841B950B74
:10048000A60BB70BE816F9060A071B0760F71F91C2
:100490000F91FF90EF900895789484B5826084BDA9
:1004A00084B5816084BD85B5826085BD85B5816078
:1004B00085BDEEE6F0E0808181608083E1E8F0E0D8
:1004C000808182608083808181608083E0E8F0E0C9
:1004D000808181608083E1EBF0E0808184608083B3
:1004E000E0EBF0E0808181608083EAE7F0E08081EA
:1004F000846080838081826080838081816080834A
:100500008081806880831092C10008958F709091DF
:1005100009019295990F990F907C982B90937C00EC
:1005200080917A00806480937A0080917A0086FDC1
:10053000FCCF2091780040917900942F80E030E04A
:10054000282B392BC90108951F93CF93DF93182FC0
:10055000EB0161E00E94FD02E12FF0E0E255FF4F68
:100560008491833051F48091800080688093800072
:10057000D0938900C09388003CC0843051F48091AE
:100580008000806280938000D0938B00C0938A00AB
:1005900030C0813039F4209729F184B5806884BD5A
:1005A000C7BD27C0823039F42097E1F084B580625E
:1005B00084BDC8BD1EC0863041F48091B000806803
:1005C0008093B000C093B30014C0873041F4809191
:1005D000B00080628093B000C093B4000AC0C038FD
:1005E000D1051CF4812F60E002C0812F61E00E94E0
:1005F0001D03DF91CF911F910895282F30E0C9018D
:1006000086569F4FFC0194912A573F4FF9018491E0
:10061000882391F0E82FF0E0EE0FFF1FE859FF4F1D
:10062000A591B491662329F48C91909589238C939C
:1006300008958C91892B8C930895482F50E0CA011E
:1006400082559F4FFC012491CA0186569F4FFC01A1
:1006500094914A575F4FFA0134913323D1F1222309
:1006600031F1233021F4809180008F7705C0243050
:1006700031F4809180008F7D8093800018C02130FC
:1006800019F484B58F7704C0223021F484B58F7DAE
:1006900084BD0DC0263021F48091B0008F7705C055
:1006A000273029F48091B0008F7D8093B000E32F34
:1006B000F0E0EE0FFF1FEE58FF4FA591B4916623B7
:1006C00029F48C91909589238C9308958C91892B92
:1006D0008C9308951F920F920FB60F9211242F93AF
:1006E0003F934F935F936F937F938F939F93AF93BA
:1006F000BF93EF93FF934091C600E091A501F09165
:10070000A601CF01019660E870E00E945C079C01A1
:100710008091A7019091A8012817390739F0EB5D66
:10072000FE4F40833093A6012093A501FF91EF91E6
:10073000BF91AF919F918F917F916F915F914F91F9
:100740003F912F910F900FBE0F901F9018955F92C1
:100750006F927F928F929F92AF92BF92CF92DF92D1
:10076000EF92FF920F931F93CF93DF93EC013A0127
:100770004B01413482E458078FE0680780E0780736
:100780000CF07FC060E874E88EE190E0A401930172
:100790000E9491072150304040405040CA01B901A9
:1007A00022E030E040E050E00E94910759016A01E8
:1007B000A6019501209530954095509594E0220F23
:1007C000331F441F551F9A95D1F760E074E284EF00
:1007D00090E00E949107CA01B9012FEF30E040E09C
:1007E00050E00E943D07A40193010E949107C901B6
:1007F00081509F4F181619061CF4522E5A9403C0AC
:1008000055245394521A60E079E08DE390E0A401FE
:1008100093010E9491072150304040405040CA014E
:10082000B90122E030E040E050E00E9491072095BD
:1008300030954095509583E0220F331F441F551F7C
:100840008A95D1F760E074E284EF90E00E9491070E
:10085000CA01B9012FEF30E040E050E00E943D07AF
:10086000A40193010E949107C90181509F4F18165E
:1008700019061CF4822F815002C081E0821B85156D
:1008800000F5E885F98581E090E00A8802C0880FCC
:10089000991F0A94E2F7808360E079E08DE390E0AD
:1008A000A40193010E9491072150304040405040E4
:1008B000CA01B90122E030E040E050E00E94910717
:1008C00004C0E885F98510829501EC81FD813083B3
:1008D000EE81FF812083EA85FB85208141E050E0A5
:1008E000CA010E8402C0880F991F0A94E2F7282BD0
:1008F0002083EA85FB852081CA010F8402C0880F0E
:10090000991F0A94E2F7282B2083EA85FB858081D2
:10091000088802C0440F551F0A94E2F7842B808395
:10092000DF91CF911F910F91FF90EF90DF90CF90CB
:10093000BF90AF909F908F907F906F905F90089541
:10094000FC01A085B18521898C9190E0022E02C026
:10095000959587950A94E2F780FFF6CF0484F58594
:10096000E02D608308958EE091E09093AA0180933A
:10097000A90185E291E09093AC018093AB0185ECF5
:1009800090E09093AE018093AD0184EC90E0909361
:10099000B0018093AF0180EC90E09093B20180931E
:1009A000B10181EC90E09093B4018093B30186ECA7
:1009B00090E09093B6018093B50184E08093B701F5
:1009C00083E08093B80187E08093B90185E080934C
:1009D000BA0181E08093BB0108950F931F93CF93D9
:1009E000DF938C01EB0109C02196D801ED91FC91B8
:1009F0000190F081E02DC801099568816623A1F777
:100A0000DF91CF911F910F910895EF92FF920F9375
:100A10001F93CF93DF938C017B01EA010CC0D701B8
:100A20006D917D01D801ED91FC910190F081E02D57
:100A3000C80109952197209791F7DF91CF911F91D8
:100A40000F91FF90EF900895DC01ED91FC910280F1
:100A5000F381E02D099508950F931F938C01DC011C
:100A6000ED91FC910190F081E02D6DE00995D801A8
:100A7000ED91FC910190F081E02DC8016AE00995AB
:100A80001F910F9108950F931F938C010E942405CD
:100A9000C8010E942C051F910F9108955058BB2743
:100AA000AA270ED04DC13ED130F043D120F031F411
:100AB0009F3F11F41EF433C10EF4E095E7FB29C10A
:100AC000E92F4FD180F3BA176207730784079507A0
:100AD00018F071F49EF567C10EF4E0950B2EBA2F55
:100AE000A02D0B01B90190010C01CA01A001112434
:100AF000FF27591B99F0593F50F4503E68F11A16E0
:100B0000F040A22F232F342F4427585FF3CF469570
:100B100037952795A795F0405395C9F77EF41F1692
:100B2000BA0B620B730B840BBAF09150A1F0FF0F5C
:100B3000BB1F661F771F881FC2F70EC0BA0F621F48
:100B4000731F841F48F4879577956795B795F79538
:100B50009E3F08F0B3CF9395880F08F09927EE0FCA
:100B60009795879508950CD0EBC0E3D040F0DAD08C
:100B700030F021F45F3F19F0CCC0511115C1CFC046
:100B8000F0D098F39923C9F35523B1F3951B550B76
:100B9000BB27AA2762177307840738F09F5F5F4F50
:100BA000220F331F441FAA1FA9F333D00E2E3AF091
:100BB000E0E830D091505040E695001CCAF729D0AB
:100BC000FE2F27D0660F771F881FBB1F26173707FA
:100BD0004807AB07B0E809F0BB0B802DBF01FF272A
:100BE00093585F4F2AF09E3F510568F092C0DCC0D9
:100BF0005F3FECF3983EDCF3869577956795B79564
:100C0000F7959F5FC9F7880F911D9695879597F97E
:100C10000895E1E0660F771F881FBB1F62177307F7
:100C20008407BA0720F0621B730B840BBA0BEE1F0C
:100C300088F7E095089504D06894B111B5C008957F
:100C400098D088F09F5790F0B92F9927B751A0F00E
:100C5000D1F0660F771F881F991F1AF0BA95C9F750
:100C600012C0B13081F09FD0B1E008959CC0672FD1
:100C7000782F8827B85F39F0B93FCCF38695779500
:100C80006795B395D9F73EF49095809570956195E9
:100C90007F4F8F4F9F4F0895E89409C097FB3EF414
:100CA00090958095709561957F4F8F4F9F4F9923B9
:100CB000A9F0F92F96E9BB279395F6958795779537
:100CC0006795B795F111F8CFFAF4BB0F11F460FFF7
:100CD0001BC06F5F7F4F8F4F9F4F16C0882311F04F
:100CE00096E911C0772321F09EE8872F762F05C063
:100CF000662371F096E8862F70E060E02AF09A95FE
:100D0000660F771F881FDAF7880F9695879597F9F2
:100D1000089597F99F6780E870E060E008959FEF7D
:100D200080EC089500240A94161617061806090682
:100D3000089500240A941216130614060506089551
:100D4000092E0394000C11F4882352F0BB0F40F4D9
:100D5000BF2B11F460FF04C06F5F7F4F8F4F9F4F19
:100D6000089557FD9058440F551F59F05F3F71F09B
:100D70004795880F97FB991F61F09F3F79F0879502
:100D80000895121613061406551FF2CF4695F1DF8B
:100D900008C0161617061806991FF1CF869571051B
:100DA000610508940895E894BB2766277727CB014F
:100DB00097F908950BD0C4CFB5DF28F0BADF18F04B
:100DC000952309F0A6CFABCF1124EECFCADFA0F355
:100DD000959FD1F3950F50E0551F629FF001729FD0
:100DE000BB27F00DB11D639FAA27F00DB11DAA1FEF
:100DF000649F6627B00DA11D661F829F2227B00D3C
:100E0000A11D621F739FB00DA11D621F839FA00DC6
:100E1000611D221F749F3327A00D611D231F849F16
:100E2000600D211D822F762F6A2F11249F5750406D
:100E30008AF0E1F088234AF0EE0FFF1FBB1F661F08
:100E4000771F881F91505040A9F79E3F510570F0C1
:100E500060CFAACF5F3FECF3983EDCF386957795A1
:100E60006795B795F795E7959F5FC1F7FE2B880FBC
:100E7000911D9695879597F90895629FD001739F6C
:100E8000F001829FE00DF11D649FE00DF11D929F26
:100E9000F00D839FF00D749FF00D659FF00D992765
:100EA000729FB00DE11DF91F639FB00DE11DF91F89
:100EB000BD01CF011124089597FB092E07260AD002
:100EC00077FD04D049D006D000201AF470956195C2
:100ED0007F4F0895F6F7909581959F4F0895A1E271
:100EE0001A2EAA1BBB1BFD010DC0AA1FBB1FEE1FA4
:100EF000FF1FA217B307E407F50720F0A21BB30BEF
:100F0000E40BF50B661F771F881F991F1A9469F76A
:100F100060957095809590959B01AC01BD01CF01C6
:100F2000089597FB092E05260ED057FD04D0D7DF74
:100F30000AD0001C38F450954095309521953F4FCC
:100F40004F4F5F4F0895F6F7909580957095619596
:100F50007F4F8F4F9F4F0895AA1BBB1B51E107C0C6
:100F6000AA1FBB1FA617B70710F0A61BB70B881F39
:100F7000991F5A95A9F780959095BC01CD010895C8
:100F8000EE0FFF1F0590F491E02D0994F894FFCF28
:100F90004144435F4C494E45000100000000A0045D
:040FA000ED04050552
:00000001FF
