:100000000C9462000C948A000C948A000C948A0070
:100010000C948A000C948A000C948A000C948A0038
:100020000C948A000C948A000C948A000C948A0028
:100030000C948A000C948A000C948A000C948A0018
:100040000C9414050C948A000C94B2060C948A004B
:100050000C948A000C948A000C948A000C948A00F8
:100060000C948A000C948A000000000024002700F1
:100070002A0000000000250028002B0000000000DE
:1000800023002600290004040404040404040202DA
:100090000202020203030303030301020408102007
:1000A0004080010204081020010204081020000012
:1000B0000007000201000003040600000000000029
:1000C0000000FB0711241FBECFEFD8E0DEBFCDBF7D
:1000D00011E0A0E0B1E0E4E1F9E102C005900D9289
:1000E000A233B107D9F711E0A2E3B1E001C01D923C
:1000F000A03FB107E1F710E0C4ECD0E004C02297C4
:10010000FE010E94840CC23CD107C9F70E940D0574
:100110000C94880C0C9400008DE061E00E94650650
:100120008CE060E00E94650661E070E080E090E0B5
:100130000E946A0583E00E94CE0590934701809358
:1001400046012091250130912601821793071CF06A
:1001500081E0809345010895AF92BF92CF92DF92E4
:10016000EF92FF920F931F938DE060E00E9465066F
:100170008CE060E00E94650661E070E080E090E065
:100180000E946A0582E00E94CE055C018DE060E07D
:100190000E9465068CE061E00E94650661E070E007
:1001A00080E090E00E946A0582E00E94CE057C011A
:1001B000CC24B7FCC094DC2CC601B5010E94E80A2F
:1001C0005B016C010027F7FC0095102FC801B701F7
:1001D0000E94E80A7B018C0180E090E0A0E8BFE388
:1001E0008093320190933301A0933401B093350191
:1001F0008093360190933701A0933801B093390171
:10020000C601B50120E030E046E953E40E94490A06
:1002100088230CF04FC0C801B70120E030E046E968
:1002200053E40E94490A88230CF04FC08DED91E001
:1002300060E071E00E948B0889E06FEF70E00E943F
:10024000EC058BE060E070E00E94EC0588EE93E046
:10025000909344018093430180914201882389F067
:100260008BEE91E5A8E3BFE38093320190933301D5
:10027000A0933401B09335018DEC9CECACE4BFEB62
:1002800010C08DEC9CECACE4BFEB809332019093FA
:100290003301A0933401B09335018BEE91E5A8E3CF
:1002A000BFE38093360190933701A0933801B09358
:1002B0003901EDC0C801B70120E030E046E953E460
:1002C0000E94490A88230CF0D4C020914301309148
:1002D000440112161306A4F580914201882389F087
:1002E0008BEE91E5A8E3BFE3809332019093330155
:1002F000A0933401B093350180E090E0A0E0B0E03D
:1003000010C080E090E0A0E0B0E0809332019093D4
:100310003301A0933401B09335018BEE91E5A8E34E
:10032000BFE38093360190933701A0933801B093D7
:100330003901215030403093440120934301A7C03C
:10034000C601B501A80197010E94E40920E030E050
:100350004AE754E40E944D0A7B018C0189E060E089
:1003600070E00E94EC058BE060E070E00E94EC051C
:10037000C801B70120E030E040E050E00E94490AA7
:10038000882334F58DED91E06AE071E00E948B08DE
:1003900081E080934201C801B70120E030E040EAEB
:1003A00050EC0E949C0B9B01AC016091320170915A
:1003B000330180913401909135010E94E5096093E9
:1003C000320170933301809334019093350124C03E
:1003D0008DED91E065E171E00E948B081092420181
:1003E000C801B70120E030E040EA50E40E949C0BD5
:1003F0009B01AC0160913601709137018091380109
:10040000909139010E94E50960933601709337019C
:1004100080933801909339016091320170913301DA
:1004200080913401909135012DEC3CEC4CE45FE37C
:100430000E949C0B609332017093330180933401CE
:1004400090933501609136017091370180913801A8
:10045000909139012DEC3CEC4CE45FE30E949C0B45
:10046000609336017093370180933801909339017E
:100470000EC0109244011092430189E060E070E0E8
:100480000E94EC058BE06FEF70E00E94EC051F917D
:100490000F91FF90EF90DF90CF90BF90AF900895B5
:1004A0008DE061E00E9465068CE060E00E946506D8
:1004B00061E070E080E090E00E946A0583E00E94C5
:1004C000CE059093470180934601209123013091FE
:1004D000240128173907BCF160913A0170913B0162
:1004E00080913C0190913D0123E333E343E75FE3D7
:1004F0000E949C0B60933A0170933B0180933C01F6
:1005000090933D0160913E0170913F0180914001C7
:100510009091410123E333E343E75FE30E949C0BA7
:1005200060933E0170933F0180934001909341019D
:100530008BE06DE770E00E94EC0589E06DE770E00C
:100540000E94EC05089580E090E0A0E8BFE380936E
:100550003A0190933B01A0933C01B0933D018093FD
:100560003E0190933F01A0934001B0934101089553
:10057000AF92BF92CF92DF92EF92FF920F931F93B1
:10058000CF93DF937B018C0159016A01609148018F
:100590007091490180914A0190914B0120E030E037
:1005A00040E050E00E94490A1816F4F0C801B70173
:1005B00020E030E040E050E00E94980B1816A4F4D0
:1005C00086E060E070E00E94EC0585E060E070E0AD
:1005D0000E94EC0564EF71E080E090E00E946A0503
:1005E00088E061E00E9465066091480170914901D0
:1005F00080914A0190914B0120E030E040E050E0D2
:100600000E94980B8823F4F0C801B70120E030E085
:1006100040E050E00E94490A8823A4F486E060E0AC
:1006200070E00E94EC0585E060E070E00E94EC055F
:1006300064EF71E080E090E00E946A0588E060E08D
:100640000E94650660914C0170914D0180914E01B0
:1006500090914F0120E030E040E050E00E94490AD4
:100660001816F4F0C601B50120E030E040E050E09B
:100670000E94980B1816A4F486E060E070E00E94D7
:10068000EC0585E060E070E00E94EC0564EF71E04D
:1006900080E090E00E946A0587E061E00E946506C4
:1006A00060914C0170914D0180914E0190914F01EC
:1006B00020E030E040E050E00E94980B8823F4F006
:1006C000C601B50120E030E040E050E00E94490A58
:1006D0008823A4F486E060E070E00E94EC0585E0E9
:1006E00060E070E00E94EC0564EF71E080E090E073
:1006F0000E946A0587E060E00E946506E09248017A
:10070000F092490100934A0110934B01A0924C01D1
:10071000B0924D01C0924E01D0924F01C801B70175
:1007200020E030E048E453E40E949C0B0E94B50AAC
:100730008B0177FF03C0109501951F4FC601B501CE
:1007400020E030E04FE753E40E949C0B0E94B50A82
:10075000EB0177FF03C0D095C195DF4FB801882723
:1007600077FD8095982F0E94E80A0E94B50A9B01A8
:10077000AC0186E0B9010E94EC05BE01882777FD37
:100780008095982F0E94E80A0E94B50A9B01AC014F
:1007900085E0B9010E94EC05DF91CF911F910F9187
:1007A000FF90EF90DF90CF90BF90AF900895AF9201
:1007B000BF92CF92DF92EF92FF920F931F938DED36
:1007C00091E040E051EE60E070E00E94EF060E9490
:1007D0005C055B016C016091480170914901809159
:1007E0004A0190914B0120914C0130914D01409173
:1007F0004E0150914F010E94E5097B018C0120E0E0
:1008000030E040E050E00E94980B18163CF4C8011C
:10081000B70120E030E040E05FE306C0C801B70167
:1008200020E030E040E05FEB0E949C0B7B018C01FC
:10083000C601B50128EE33E040E050E00E94310CE3
:10084000CA01B9010E94E60A20E030E040E050E031
:100850000E94E4099B01AC01C801B7010E949C0BF6
:100860009B01AC0160E070E080E090E00E94E5094F
:10087000AB01BC018DED91E00E94E0098DED91E0AE
:100880006FE171E00E946C081F910F91FF90EF9053
:10089000DF90CF90BF90AF9008956F927F928F922C
:1008A0009F92AF92BF92CF92DF92EF92FF920F93FF
:1008B0001F9380914501882309F44BC00E94AC002E
:1008C0000E94500260903201709033018090340198
:1008D000D090350110913A0100913B01F0903C011C
:1008E000E0903D01B301882D9D2D212F302F4F2DFC
:1008F0005E2D0E94490A87FD04C0612E702E8F2C48
:10090000DE2CE0903601F090370100913801109113
:100910003901C0903E01B0903F01A09040019090FD
:100920004101B701C8012C2D3B2D4A2D592D0E94A4
:10093000490A87FD04C0EC2CFB2C0A2D192DB301AC
:10094000882D9D2D9701A8010E94B8020E94D7030F
:1009500002C00E948C001F910F91FF90EF90DF90DA
:10096000CF90BF90AF909F908F907F906F900895A1
:10097000109245018DED91E040E051EE60E070E0B5
:100980000E94EF068CE061E00E9445068CE061E089
:100990000E9465068DE061E00E9445068DE061E001
:1009A0000E94650687E061E00E94450687E061E0FD
:1009B0000E94650688E061E00E94450688E061E0EB
:1009C0000E94650680E090E0A0E8BFE380933201DA
:1009D00090933301A0933401B09335018093360195
:1009E00090933701A0933801B093390180933A0175
:1009F00090933B01A0933C01B0933D0180933E0155
:100A000090933F01A0934001B093410110924201A5
:100A1000109244011092430108950E9494050E948F
:100A2000B8040E944D04FDCF1F920F920FB60F9293
:100A300011242F933F938F939F93AF93BF938091F4
:100A4000540190915501A0915601B09157013091F8
:100A500058010196A11DB11D232F2D5F2D3720F0C8
:100A60002D570196A11DB11D20935801809354016B
:100A700090935501A0935601B09357018091500176
:100A800090915101A0915201B09153010196A11D85
:100A9000B11D8093500190935101A0935201B093E6
:100AA0005301BF91AF919F918F913F912F910F90E3
:100AB0000FBE0F901F9018958FB7F8942091540196
:100AC0003091550140915601509157018FBFB901A6
:100AD000CA010895EF92FF920F931F937B018C013F
:100AE0008FB7F8944091540150915501609156018F
:100AF000709157018FBF2FB7F89480915401909156
:100B00005501A0915601B09157012FBF841B950B41
:100B1000A60BB70BE816F9060A071B0760F71F912B
:100B20000F91FF90EF900895789484B5826084BD12
:100B300084B5816084BD85B5826085BD85B58160E1
:100B400085BDEEE6F0E0808181608083E1E8F0E041
:100B5000808182608083808181608083E0E8F0E032
:100B6000808181608083E1EBF0E08081846080831C
:100B7000E0EBF0E0808181608083EAE7F0E0808153
:100B800084608083808182608083808181608083B3
:100B90008081806880831092C10008958F70909149
:100BA00027019295990F990F907C982B90937C0038
:100BB00080917A00806480937A0080917A0086FD2B
:100BC000FCCF2091780040917900942F80E030E0B4
:100BD000282B392BC90108951F93CF93DF93182F2A
:100BE000EB0161E00E944506E12FF0E0E255FF4F86
:100BF0008491833051F480918000806880938000DC
:100C0000D0938900C09388003CC0843051F4809117
:100C10008000806280938000D0938B00C0938A0014
:100C200030C0813039F4209729F184B5806884BDC3
:100C3000C7BD27C0823039F42097E1F084B58062C7
:100C400084BDC8BD1EC0863041F48091B00080686C
:100C50008093B000C093B30014C0873041F48091FA
:100C6000B00080628093B000C093B4000AC0C03866
:100C7000D1051CF4812F60E002C0812F61E00E9449
:100C80006506DF91CF911F910895282F30E0C901AB
:100C900086569F4FFC0194912A573F4FF90184914A
:100CA000882391F0E82FF0E0EE0FFF1FE859FF4F87
:100CB000A591B491662329F48C91909589238C9306
:100CC00008958C91892B8C930895482F50E0CA0188
:100CD00082559F4FFC012491CA0186569F4FFC010B
:100CE00094914A575F4FFA0134913323D1F1222373
:100CF00031F1233021F4809180008F7705C02430BA
:100D000031F4809180008F7D8093800018C0213065
:100D100019F484B58F7704C0223021F484B58F7D17
:100D200084BD0DC0263021F48091B0008F7705C0BE
:100D3000273029F48091B0008F7D8093B000E32F9D
:100D4000F0E0EE0FFF1FEE58FF4FA591B491662320
:100D500029F48C91909589238C9308958C91892BFB
:100D60008C9308951F920F920FB60F9211242F9318
:100D70003F934F935F936F937F938F939F93AF9323
:100D8000BF93EF93FF934091C600E091D901F0919A
:100D9000DA01CF01019660E870E00E941E0C9C0110
:100DA0008091DB019091DC012817390739F0E75A6F
:100DB000FE4F40833093DA012093D901FF91EF91E8
:100DC000BF91AF919F918F917F916F915F914F9163
:100DD0003F912F910F900FBE0F901F9018955F922B
:100DE0006F927F928F929F92AF92BF92CF92DF923B
:100DF000EF92FF920F931F93CF93DF93EC013A0191
:100E00004B01413482E458078FE0680780E078079F
:100E10000CF07FC060E874E88EE190E0A4019301DB
:100E20000E94530C2150304040405040CA01B9014B
:100E300022E030E040E050E00E94530C59016A018A
:100E4000A6019501209530954095509594E0220F8C
:100E5000331F441F551F9A95D1F760E074E284EF69
:100E600090E00E94530CCA01B9012FEF30E040E03E
:100E700050E00E94FF0BA40193010E94530CC90192
:100E800081509F4F181619061CF4522E5A9403C015
:100E900055245394521A60E079E08DE390E0A40168
:100EA00093010E94530C2150304040405040CA01F1
:100EB000B90122E030E040E050E00E94530C209560
:100EC00030954095509583E0220F331F441F551FE6
:100ED0008A95D1F760E074E284EF90E00E94530CB1
:100EE000CA01B9012FEF30E040E050E00E94FF0B53
:100EF000A40193010E94530CC90181509F4F181601
:100F000019061CF4822F815002C081E0821B8515D6
:100F100000F5E885F98581E090E00A8802C0880F35
:100F2000991F0A94E2F7808360E079E08DE390E016
:100F3000A40193010E94530C215030404040504086
:100F4000CA01B90122E030E040E050E00E94530CB9
:100F500004C0E885F98510829501EC81FD8130831C
:100F6000EE81FF812083EA85FB85208141E050E00E
:100F7000CA010E8402C0880F991F0A94E2F7282B39
:100F80002083EA85FB852081CA010F8402C0880F77
:100F9000991F0A94E2F7282B2083EA85FB8580813C
:100FA000088802C0440F551F0A94E2F7842B8083FF
:100FB000DF91CF911F910F91FF90EF90DF90CF9035
:100FC000BF90AF909F908F907F906F905F900895AB
:100FD000FC01A085B18521898C9190E0022E02C090
:100FE000959587950A94E2F780FFF6CF0484F585FE
:100FF000E02D608308958CE291E09093DE01809370
:10100000DD0189E591E09093E0018093DF0185ECBB
:1010100090E09093E2018093E10184EC90E0909362
:10102000E4018093E30180EC90E09093E6018093EB
:10103000E50181EC90E09093E8018093E70186EC74
:1010400090E09093EA018093E90184E08093EB01C2
:1010500083E08093EC0187E08093ED0185E080934D
:10106000EE0181E08093EF0108950F931F93CF93DA
:10107000DF938C01EB0109C02196D801ED91FC9121
:101080000190F081E02DC801099568816623A1F7E0
:10109000DF91CF911F910F910895EF92FF920F93DF
:1010A0001F93CF93DF938C017B01EA010CC0D70122
:1010B0006D917D01D801ED91FC910190F081E02DC1
:1010C000C80109952197209791F7DF91CF911F9142
:1010D0000F91FF90EF900895DC01ED91FC9102805B
:1010E000F381E02D099508950F931F938C01DC0186
:1010F000ED91FC910190F081E02D6DE00995D80112
:10110000ED91FC910190F081E02DC8016AE0099514
:101110001F910F9108950F931F938C010E946C08EB
:10112000C8010E9474081F910F9108952F923F9259
:101130004F925F926F927F928F929F92AF92BF92E7
:10114000CF92DF92EF92FF920F931F93DF93CF9393
:10115000CDB7DEB7A0970FB6F894DEBF0FBECDBFF8
:101160001C016A017B01411551056105710549F4B6
:10117000DC01ED91FC910190F081E02D60E3099597
:1011800054C0882499245401422E5524662477247F
:1011900001E010E00C0F1D1F080D191DC701B6015D
:1011A000A30192010E94310CF80160830894811C14
:1011B000911CA11CB11CC701B601A30192010E94A0
:1011C000310CC901DA016C017D01C114D104E104C3
:1011D000F104F1F681E0E82EF12CEC0EFD1EE80C96
:1011E000F91C3E010894611C711CD501C4010197D2
:1011F000A109B1096C01C818D90814C0F601EE0D97
:10120000FF1D60816A3010F4605D01C0695CD1012E
:10121000ED91FC910190F081E02DC10109950894B8
:10122000E108F1086E147F0449F7A0960FB6F89410
:10123000DEBF0FBECDBFCF91DF911F910F91FF9009
:10124000EF90DF90CF90BF90AF909F908F907F9066
:101250006F905F904F903F902F9008952AE00E94EA
:1012600096080895EF92FF920F931F93CF93DF9309
:10127000EC017A018B0177FF0FC0E881F9810190C1
:10128000F081E02D6DE2099510950095F094E094C1
:10129000E11CF11C011D111DCE01B801A7012AE0BE
:1012A0000E949608DF91CF911F910F91FF90EF90D0
:1012B00008959F92AF92BF92CF92DF92EF92FF92EA
:1012C0000F931F93CF93DF93EC017A018B01922E42
:1012D000CB01BA0120E030E040E050E00E94490A32
:1012E000882364F4E881F9810190F081E02DCE013A
:1012F0006DE2099517FB109517F9109520E030E085
:1013000040E05FE3AA240BC0CA01B90120E030E04D
:1013100040E251E40E944D0A9B01AC01A394A91440
:1013200098F3C801B7010E94E5095B016C010E94B6
:10133000BA0A7B018C01CE01B801A7010E942E09D7
:10134000992029F0CE0161E271E00E946C08C80189
:10135000B7010E94E60A9B01AC01C601B5010E94DB
:10136000E40920C020E030E040E251E40E949C0B00
:101370007B018C010E94B50A5B016C01CC24B7FC97
:10138000C094DC2CCE01B601A5010E943209C60131
:10139000B5010E94E80A9B01AC01C801B7010E9497
:1013A000E4099A949920F1F6DF91CF911F910F9162
:1013B000FF90EF90DF90CF90BF90AF909F900895F7
:1013C00022E00E94590908955058BB27AA270ED041
:1013D00075C166D130F06BD120F031F49F3F11F42C
:1013E0001EF45BC10EF4E095E7FB51C1E92F77D104
:1013F00080F3BA17620773078407950718F071F432
:101400009EF58FC10EF4E0950B2EBA2FA02D0B0187
:10141000B90190010C01CA01A0011124FF27591B39
:1014200099F0593F50F4503E68F11A16F040A22F3F
:10143000232F342F4427585FF3CF469537952795B0
:10144000A795F0405395C9F77EF41F16BA0B620BAF
:10145000730B840BBAF09150A1F0FF0FBB1F661FF6
:10146000771F881FC2F70EC0BA0F621F731F841F39
:1014700048F4879577956795B795F7959E3F08F05F
:10148000B3CF9395880F08F09927EE0F979587951E
:101490000895D9D008F481E008950CD00FC107D188
:1014A00040F0FED030F021F45F3F19F0F0C0511150
:1014B00039C1F3C014D198F39923C9F35523B1F37B
:1014C000951B550BBB27AA2762177307840738F0B3
:1014D0009F5F5F4F220F331F441FAA1FA9F333D012
:1014E0000E2E3AF0E0E830D091505040E695001CC6
:1014F000CAF729D0FE2F27D0660F771F881FBB1F82
:10150000261737074807AB07B0E809F0BB0B802D5B
:10151000BF01FF2793585F4F2AF09E3F510568F0A7
:10152000B6C000C15F3FECF3983EDCF3869577953B
:101530006795B795F7959F5FC9F7880F911D9695A9
:10154000879597F90895E1E0660F771F881FBB1F05
:10155000621773078407BA0720F0621B730B840BB2
:10156000BA0BEE1F88F7E095089504D06894B11186
:10157000D9C00895BCD088F09F5790F0B92F992713
:10158000B751A0F0D1F0660F771F881F991F1AF08E
:10159000BA95C9F712C0B13081F0C3D0B1E0089557
:1015A000C0C0672F782F8827B85F39F0B93FCCF3D8
:1015B000869577956795B395D9F73EF49095809584
:1015C000709561957F4F8F4F9F4F0895E89409C0A4
:1015D00097FB3EF490958095709561957F4F8F4F66
:1015E0009F4F9923A9F0F92F96E9BB279395F6957C
:1015F000879577956795B795F111F8CFFAF4BB0FFA
:1016000011F460FF1BC06F5F7F4F8F4F9F4F16C05D
:10161000882311F096E911C0772321F09EE8872FE7
:10162000762F05C0662371F096E8862F70E060E0A3
:101630002AF09A95660F771F881FDAF7880F96951C
:10164000879597F90895990F0008550FAA0BE0E8C0
:10165000FEEF16161706E807F907C0F01216130674
:10166000E407F50798F0621B730B840B950B39F4B4
:101670000A2661F0232B242B252B21F408950A261A
:1016800009F4A140A6958FEF811D811D089597F95A
:101690009F6780E870E060E008959FEF80EC089518
:1016A00000240A9416161706180609060895002441
:1016B0000A9412161306140605060895092E0394BB
:1016C000000C11F4882352F0BB0F40F4BF2B11F42F
:1016D00060FF04C06F5F7F4F8F4F9F4F089557FD8E
:1016E0009058440F551F59F05F3F71F04795880F90
:1016F00097FB991F61F09F3F79F087950895121627
:1017000013061406551FF2CF4695F1DF08C01616D2
:1017100017061806991FF1CF869571056105089483
:101720000895E894BB2766277727CB0197F908959A
:101730008ADF08F48FEF08950BD0C0CFB1DF28F017
:10174000B6DF18F0952309F0A2CFA7CF1124EACF76
:10175000C6DFA0F3959FD1F3950F50E0551F629F10
:10176000F001729FBB27F00DB11D639FAA27F00DFA
:10177000B11DAA1F649F6627B00DA11D661F829F21
:101780002227B00DA11D621F739FB00DA11D621F06
:10179000839FA00D611D221F749F3327A00D611D23
:1017A000231F849F600D211D822F762F6A2F112405
:1017B0009F5750408AF0E1F088234AF0EE0FFF1F58
:1017C000BB1F661F771F881F91505040A9F79E3F8F
:1017D000510570F05CCFA6CF5F3FECF3983EDCF391
:1017E000869577956795B795F795E7959F5FC1F7CC
:1017F000FE2B880F911D9695879597F90895629F06
:10180000D001739FF001829FE00DF11D649FE00DF8
:10181000F11D929FF00D839FF00D749FF00D659F59
:10182000F00D9927729FB00DE11DF91F639FB00D58
:10183000E11DF91FBD01CF011124089597FB092E69
:1018400007260AD077FD04D049D006D000201AF42C
:10185000709561957F4F0895F6F7909581959F4F0C
:101860000895A1E21A2EAA1BBB1BFD010DC0AA1FE1
:10187000BB1FEE1FFF1FA217B307E407F50720F0F9
:10188000A21BB30BE40BF50B661F771F881F991F74
:101890001A9469F760957095809590959B01AC01BD
:1018A000BD01CF01089597FB092E05260ED057FDE7
:1018B00004D0D7DF0AD0001C38F4509540953095FD
:1018C00021953F4F4F4F5F4F0895F6F790958095C4
:1018D000709561957F4F8F4F9F4F0895AA1BBB1B3B
:1018E00051E107C0AA1FBB1FA617B70710F0A61B20
:1018F000B70B881F991F5A95A9F780959095BC0141
:10190000CD010895EE0FFF1F0590F491E02D09948D
:04191000F894FFCF79
:101914004F464620545241434B00474F544F2052A8
:101924004947485400474F544F204C4546540020E3
:10193400002E00B60320030100000000E80735086C
:021944004D084C
:00000001FF
