:100000000C9462000C948A000C948A000C948A0070
:100010000C948A000C948A000C948A000C948A0038
:100020000C948A000C948A000C948A000C948A0028
:100030000C948A000C948A000C948A000C948A0018
:100040000C94C5030C948A000C9455050C948A00FA
:100050000C948A000C948A000C948A000C948A00F8
:100060000C948A000C948A000000000024002700F1
:100070002A0000000000250028002B0000000000DE
:1000800023002600290004040404040404040202DA
:100090000202020203030303030301020408102007
:1000A0004080010204081020010204081020000012
:1000B0000007000201000003040600000000000029
:1000C00000009E0611241FBECFEFD8E0DEBFCDBFDB
:1000D00011E0A0E0B1E0EEEBF3E102C005900D927B
:1000E000AA32B107D9F711E0AAE2B1E001C01D922E
:1000F000A23EB107E1F710E0C4ECD0E004C02297C3
:10010000FE010E94D909C23CD107C9F70E94BE0373
:100110000C94DD090C9400008DE060E00E9408055D
:100120008CE060E00E94080562E370E080E090E00F
:100130000E940D0480E00E9471049093400180931E
:100140003F014597875A924018F081E08093410122
:100150000895AF92BF92CF92DF92EF92FF920F93EA
:100160001F938DE060E00E9408058CE060E00E9433
:10017000080561E070E080E090E00E940D0482E0FC
:100180000E9471045C018DE060E00E9408058CE033
:1001900061E00E94080561E070E080E090E00E946C
:1001A0000D0482E00E9471047C01CC24B7FCC09451
:1001B000DC2CC601B5010E943D085B016C010027E3
:1001C000F7FC0095102FC801B7010E943D087B0184
:1001D0008C0180E090E0A0E8BFE380932A01909337
:1001E0002B01A0932C01B0932D0180932E019093AD
:1001F0002F01A0933001B0933101C601B50120E079
:1002000030E04CE853E40E949E0788230CF058C06D
:10021000C801B70120E030E04CE853E40E949E079B
:1002200088230CF058C08FEC91E060E071E00E94F0
:100230002E0789E06FEF70E00E948F048BE060E092
:1002400070E00E948F0484E690E090933C018093DC
:100250003B0180913A01882389F088E29CE5AFE474
:10026000BFE380932A0190932B01A0932C01B093BC
:100270002D0186E696E6A6E6BFEB10C086E696E67A
:10028000A6E6BFEB80932A0190932B01A0932C014B
:10029000B0932D0188E29CE5AFE4BFE380932E018B
:1002A00090932F01A0933001B093310180913D01D3
:1002B00090913E01019690933E0180933D01F5C0DF
:1002C000C801B70120E030E04CE853E40E949E07EB
:1002D00088230CF0D8C010923E0110923D0120916D
:1002E0003B0130913C0112161306A4F580913A01AE
:1002F000882389F088E29CE5AFE4BFE380932A017C
:1003000090932B01A0932C01B0932D0180E090E0FD
:10031000A0E0B0E010C080E090E0A0E0B0E080930A
:100320002A0190932B01A0932C01B0932D0188E218
:100330009CE5AFE4BFE380932E0190932F01A0933F
:100340003001B09331012150304030933C01209373
:100350003B01ABC0C601B501A80197010E94390756
:1003600020E030E04AE754E40E94A2077B018C01C0
:1003700089E060E070E00E948F048BE060E070E054
:100380000E948F04C801B70120E030E040E050E057
:100390000E949E07882334F58FEC91E06AE071E0BB
:1003A0000E942E0781E080933A01C801B70120E046
:1003B00030E040EA50EC0E94F1089B01AC016091F2
:1003C0002A0170912B0180912C0190912D010E94A6
:1003D0003A0760932A0170932B0180932C0190932C
:1003E0002D0124C08FEC91E065E171E00E942E07A1
:1003F00010923A01C801B70120E030E040EA50E431
:100400000E94F1089B01AC0160912E0170912F01B7
:1004100080913001909131010E943A0760932E0142
:1004200070932F01809330019093310160912A01E4
:1004300070912B0180912C0190912D0126E636E6DA
:1004400046E65FE30E94F10860932A0170932B0156
:1004500080932C0190932D0160912E0170912F01BA
:10046000809130019091310126E636E646E65FE361
:100470000E94F10860932E0170932F018093300148
:100480009093310112C010923C0110923B011092E6
:100490003E0110923D0189E060E070E00E948F040F
:1004A0008BE06FEF70E00E948F04E0902A01F090E3
:1004B0002B0100912C0110912D01C801B70120E002
:1004C00030E040E85FEB0E949E07882354F40F2E33
:1004D000F0E0EF2EF0E0FF2EF0E80F2FFFEB1F2FE4
:1004E000F02DE0922A01F0922B0100932C01109341
:1004F0002D01E0902E01F0902F010091300110911C
:100500003101C801B70120E030E040E85FEB0E9414
:100510009E07882354F40F2EF0E0EF2EF0E0FF2E1C
:10052000F0E80F2FFFEB1F2FF02DE0922E01F0923D
:100530002F0100933001109331011F910F91FF9013
:10054000EF90DF90CF90BF90AF900895AF92BF92A1
:10055000CF92DF92EF92FF920F931F937B018C015A
:1005600059016A0120E030E040E050E00E94ED08CF
:1005700018165CF488E061E00E940805C801B70124
:1005800020E030E04BE753E40AC088E060E00E94DE
:100590000805C801B70120E030E04BE753EC0E94AA
:1005A000F1080E940A089B01AC0186E0B9010E9493
:1005B0008F04C601B50120E030E040E050E00E9429
:1005C000ED0818165CF487E061E00E940805C6019A
:1005D000B50120E030E04FE753E40AC087E060E077
:1005E0000E940805C601B50120E030E04FE753EC5A
:1005F0000E94F1080E940A089B01AC0185E0B90144
:100600000E948F041F910F91FF90EF90DF90CF9089
:10061000BF90AF900895EF92FF920F931F93809138
:100620004101882309F44EC080913D0190913E0123
:100630008D5B9240C4F089E060E070E00E948F041E
:100640008BE060E070E00E948F048AE06FEF70E062
:100650000E948F0460E070E080E090E09B01AC01BC
:100660000E94A602FFCF0E94A90060912A0170910A
:100670002B0180912C0190912D012091320130911C
:10068000330140913401509135010E94F1087B0102
:100690008C0160912E0170912F0180913001909119
:1006A000310120913601309137014091380150914C
:1006B00039010E94F1089B01AC01C801B7010E94F9
:1006C000A60202C00E948C001F910F91FF90EF9034
:1006D0000895109241018FEC91E040E051EE60E00E
:1006E00070E00E9492058CE061E00E94E8048CE0DA
:1006F00061E00E9408058DE061E00E94E8048DE061
:1007000061E00E94080587E061E00E94E80487E05C
:1007100061E00E94080588E061E00E94E80488E04A
:1007200061E00E94080580E090E0A0E8BFE38093CC
:100730002A0190932B01A0932C01B0932D0180935B
:100740002E0190932F01A0933001B093310180933B
:10075000320190933301A0933401B093350180931B
:10076000360190933701A0933801B093390110926C
:100770003A0110923C0110923B0108950E94370407
:100780000E9469030E940B03FDCF1F920F920FB6C8
:100790000F9211242F933F938F939F93AF93BF9307
:1007A0008091460190914701A0914801B091490183
:1007B00030914A010196A11DB11D232F2D5F2D37C8
:1007C00020F02D570196A11DB11D20934A01809361
:1007D000460190934701A0934801B093490180914D
:1007E000420190914301A0914401B09145010196CD
:1007F000A11DB11D8093420190934301A093440138
:10080000B0934501BF91AF919F918F913F912F91EF
:100810000F900FBE0F901F901895EF92FF920F93BD
:100820001F937B018C018FB7F89440914601509142
:10083000470160914801709149018FBF2FB7F8942B
:100840008091460190914701A0914801B0914901E2
:100850002FBF841B950BA60BB70BE816F9060A07EA
:100860001B0760F71F910F91FF90EF900895789408
:1008700084B5826084BD84B5816084BD85B58260A5
:1008800085BD85B5816085BDEEE6F0E08081816043
:100890008083E1E8F0E080818260808380818160F4
:1008A0008083E0E8F0E0808181608083E1EBF0E02C
:1008B000808184608083E0EBF0E0808181608083D0
:1008C000EAE7F0E0808184608083808182608083B9
:1008D0008081816080838081806880831092C100E4
:1008E00008958F7090911F019295990F990F907CA8
:1008F000982B90937C0080917A00806480937A009A
:1009000080917A0086FDFCCF20917800409179009B
:10091000942F80E030E0282B392BC90108951F93D4
:10092000CF93DF93182FEB0161E00E94E804E12FE1
:10093000F0E0E255FF4F8491833051F480918000C4
:10094000806880938000D0938900C09388003CC069
:10095000843051F480918000806280938000D09335
:100960008B00C0938A0030C0813039F4209729F180
:1009700084B5806884BDC7BD27C0823039F4209714
:10098000E1F084B5806284BDC8BD1EC0863041F4EC
:100990008091B00080688093B000C093B30014C011
:1009A000873041F48091B00080628093B000C093A2
:1009B000B4000AC0C038D1051CF4812F60E002C029
:1009C000812F61E00E940805DF91CF911F9108956A
:1009D000282F30E0C90186569F4FFC0194912A5779
:1009E0003F4FF9018491882391F0E82FF0E0EE0F5A
:1009F000FF1FE859FF4FA591B491662329F48C910C
:100A0000909589238C9308958C91892B8C930895CC
:100A1000482F50E0CA0182559F4FFC012491CA0122
:100A200086569F4FFC0194914A575F4FFA013491CB
:100A30003323D1F1222331F1233021F4809180003E
:100A40008F7705C0243031F4809180008F7D8093B2
:100A5000800018C0213019F484B58F7704C022308B
:100A600021F484B58F7D84BD0DC0263021F48091A2
:100A7000B0008F7705C0273029F48091B0008F7DBA
:100A80008093B000E32FF0E0EE0FFF1FEE58FF4F12
:100A9000A591B491662329F48C91909589238C9328
:100AA00008958C91892B8C9308951F920F920FB605
:100AB0000F9211242F933F934F935F936F937F93E4
:100AC0008F939F93AF93BF93EF93FF934091C60093
:100AD000E091CB01F091CC01CF01019660E870E08C
:100AE0000E9473099C018091CD019091CE0128173D
:100AF000390739F0E55BFE4F40833093CC012093FA
:100B0000CB01FF91EF91BF91AF919F918F917F9119
:100B10006F915F914F913F912F910F900FBE0F906A
:100B20001F9018955F926F927F928F929F92AF92D3
:100B3000BF92CF92DF92EF92FF920F931F93CF93CA
:100B4000DF93EC013A014B01413482E458078FE016
:100B5000680780E078070CF07FC060E874E88EE1F9
:100B600090E0A40193010E94A80921503040404028
:100B70005040CA01B90122E030E040E050E00E945C
:100B8000A80959016A01A601950120953095409563
:100B9000509594E0220F331F441F551F9A95D1F7AB
:100BA00060E074E284EF90E00E94A809CA01B901F4
:100BB0002FEF30E040E050E00E945409A40193017F
:100BC0000E94A809C90181509F4F181619061CF4EC
:100BD000522E5A9403C055245394521A60E079E07F
:100BE0008DE390E0A40193010E94A80921503040B8
:100BF00040405040CA01B90122E030E040E050E0FE
:100C00000E94A809209530954095509583E0220FC9
:100C1000331F441F551F8A95D1F760E074E284EFBB
:100C200090E00E94A809CA01B9012FEF30E040E02E
:100C300050E00E945409A40193010E94A809C9012F
:100C400081509F4F181619061CF4822F815002C044
:100C500081E0821B851500F5E885F98581E090E04B
:100C60000A8802C0880F991F0A94E2F7808360E027
:100C700079E08DE390E0A40193010E94A80921503E
:100C8000304040405040CA01B90122E030E040E02D
:100C900050E00E94A80904C0E885F98510829501FA
:100CA000EC81FD813083EE81FF812083EA85FB8525
:100CB000208141E050E0CA010E8402C0880F991FD4
:100CC0000A94E2F7282B2083EA85FB852081CA015C
:100CD0000F8402C0880F991F0A94E2F7282B208303
:100CE000EA85FB858081088802C0440F551F0A945D
:100CF000E2F7842B8083DF91CF911F910F91FF90BA
:100D0000EF90DF90CF90BF90AF909F908F907F90AB
:100D10006F905F900895FC01A085B18521898C9129
:100D200090E0022E02C0959587950A94E2F780FF25
:100D3000F6CF0484F585E02D6083089584E291E088
:100D40009093D0018093CF018BE491E09093D201F6
:100D50008093D10185EC90E09093D4018093D301EE
:100D600084EC90E09093D6018093D50180EC90E0E4
:100D70009093D8018093D70181EC90E09093DA01B1
:100D80008093D90186EC90E09093DC018093DB01A5
:100D900084E08093DD0183E08093DE0187E080932F
:100DA000DF0185E08093E00181E08093E101089517
:100DB0000F931F93CF93DF938C01EB0109C0219612
:100DC000D801ED91FC910190F081E02DC8010995C9
:100DD00068816623A1F7DF91CF911F910F9108954C
:100DE000EF92FF920F931F93CF93DF938C017B01C0
:100DF000EA010CC0D7016D917D01D801ED91FC9104
:100E00000190F081E02DC80109952197209791F775
:100E1000DF91CF911F910F91FF90EF900895DC012A
:100E2000ED91FC910280F381E02D099508950F93D7
:100E30001F938C01DC01ED91FC910190F081E02D7C
:100E40006DE00995D801ED91FC910190F081E02DC4
:100E5000C8016AE009951F910F9108950F931F93A0
:100E60008C010E940F07C8010E9417071F910F9164
:100E700008955058BB27AA270ED075C166D130F00F
:100E80006BD120F031F49F3F11F41EF45BC10EF4DE
:100E9000E095E7FB51C1E92F77D180F3BA176207DC
:100EA00073078407950718F071F49EF58FC10EF44F
:100EB000E0950B2EBA2FA02D0B01B90190010C016A
:100EC000CA01A0011124FF27591B99F0593F50F482
:100ED000503E68F11A16F040A22F232F342F4427DA
:100EE000585FF3CF469537952795A795F0405395D2
:100EF000C9F77EF41F16BA0B620B730B840BBAF0A2
:100F00009150A1F0FF0FBB1F661F771F881FC2F70C
:100F10000EC0BA0F621F731F841F48F48795779520
:100F20006795B795F7959E3F08F0B3CF9395880FD7
:100F300008F09927EE0F979587950895D9D008F472
:100F400081E008950CD00FC107D140F0FED030F001
:100F500021F45F3F19F0F0C0511139C1F3C014D131
:100F600098F39923C9F35523B1F3951B550BBB2770
:100F7000AA2762177307840738F09F5F5F4F220F1D
:100F8000331F441FAA1FA9F333D00E2E3AF0E0E816
:100F900030D091505040E695001CCAF729D0FE2F62
:100FA00027D0660F771F881FBB1F261737074807F4
:100FB000AB07B0E809F0BB0B802DBF01FF279358AA
:100FC0005F4F2AF09E3F510568F0B6C000C15F3FF9
:100FD000ECF3983EDCF3869577956795B795F79592
:100FE0009F5FC9F7880F911D9695879597F908958A
:100FF000E1E0660F771F881FBB1F62177307840726
:10100000BA0720F0621B730B840BBA0BEE1F88F734
:10101000E095089504D06894B111D9C00895BCD06A
:1010200088F09F5790F0B92F9927B751A0F0D1F0D1
:10103000660F771F881F991F1AF0BA95C9F712C05B
:10104000B13081F0C3D0B1E00895C0C0672F782FD0
:101050008827B85F39F0B93FCCF3869577956795C7
:10106000B395D9F73EF490958095709561957F4F33
:101070008F4F9F4F0895E89409C097FB3EF49095D9
:101080008095709561957F4F8F4F9F4F9923A9F061
:10109000F92F96E9BB279395F695879577956795F0
:1010A000B795F111F8CFFAF4BB0F11F460FF1BC034
:1010B0006F5F7F4F8F4F9F4F16C0882311F096E9C7
:1010C00011C0772321F09EE8872F762F05C0662375
:1010D00071F096E8862F70E060E02AF09A95660F2E
:1010E000771F881FDAF7880F9695879597F90895E7
:1010F000990F0008550FAA0BE0E8FEEF1616170629
:10110000E807F907C0F012161306E407F50798F090
:10111000621B730B840B950B39F40A2661F0232BA9
:10112000242B252B21F408950A2609F4A140A69525
:101130008FEF811D811D089597F99F6780E870E00A
:1011400060E008959FEF80EC089500240A9416163D
:10115000170618060906089500240A9412161306A5
:10116000140605060895092E0394000C11F4882333
:1011700052F0BB0F40F4BF2B11F460FF04C06F5F4F
:101180007F4F8F4F9F4F089557FD9058440F551F25
:1011900059F05F3F71F04795880F97FB991F61F0F9
:1011A0009F3F79F087950895121613061406551F70
:1011B000F2CF4695F1DF08C0161617061806991FDC
:1011C000F1CF86957105610508940895E894BB27D1
:1011D00066277727CB0197F908958ADF08F48FEF08
:1011E00008950BD0C0CFB1DF28F0B6DF18F09523FB
:1011F00009F0A2CFA7CF1124EACFC6DFA0F3959FB5
:10120000D1F3950F50E0551F629FF001729FBB27ED
:10121000F00DB11D639FAA27F00DB11DAA1F649F99
:101220006627B00DA11D661F829F2227B00DA11D4C
:10123000621F739FB00DA11D621F839FA00D611DD2
:10124000221F749F3327A00D611D231F849F600DF3
:10125000211D822F762F6A2F11249F5750408AF02C
:10126000E1F088234AF0EE0FFF1FBB1F661F771FB8
:10127000881F91505040A9F79E3F510570F05CCFF8
:10128000A6CF5F3FECF3983EDCF3869577956795A4
:10129000B795F795E7959F5FC1F7FE2B880F911DD6
:1012A0009695879597F90895629FD001739FF001F5
:1012B000829FE00DF11D649FE00DF11D929FF00DE6
:1012C000839FF00D749FF00D659FF00D9927729F1D
:1012D000B00DE11DF91F639FB00DE11DF91FBD01A8
:1012E000CF011124089597FB092E07260AD077FD18
:1012F00004D049D006D000201AF4709561957F4F34
:101300000895F6F7909581959F4F0895A1E21A2EC2
:10131000AA1BBB1BFD010DC0AA1FBB1FEE1FFF1F99
:10132000A217B307E407F50720F0A21BB30BE40BE9
:10133000F50B661F771F881F991F1A9469F7609530
:101340007095809590959B01AC01BD01CF010895EA
:1013500097FB092E05260ED057FD04D0D7DF0AD003
:10136000001C38F450954095309521953F4F4F4FD4
:101370005F4F0895F6F790958095709561957F4F32
:101380008F4F9F4F0895AA1BBB1B51E107C0AA1F97
:10139000BB1FA617B70710F0A61BB70B881F991F16
:1013A0005A95A9F780959095BC01CD010895EE0F4F
:0E13B000FF1F0590F491E02D0994F894FFCFF3
:1013BE004F464620545241434B00474F544F205204
:1013CE004947485400474F544F204C45465400015E
:0A13DE00000000008B06D806F006A0
:00000001FF
