:100000000C9462000C948A000C948A000C948A0070
:100010000C948A000C948A000C948A000C948A0038
:100020000C948A000C948A000C948A000C948A0028
:100030000C948A000C948A000C948A000C948A0018
:100040000C9419030C948A000C94A9040C948A0053
:100050000C948A000C948A000C948A000C948A00F8
:100060000C948A000C948A000000000024002700F1
:100070002A0000000000250028002B0000000000DE
:1000800023002600290004040404040404040202DA
:100090000202020203030303030301020408102007
:1000A0004080010204081020010204081020000012
:1000B0000007000201000003040600000000000029
:1000C0000000F20511241FBECFEFD8E0DEBFCDBF88
:1000D00011E0A0E0B1E0E6E6F2E102C005900D9289
:1000E000AC34B107D9F711E0ACE4B1E001C01D9226
:1000F000A73FB107E1F710E0C4ECD0E004C02297BD
:10010000FE010E942D09C23CD107C9F70E941203CB
:100110000C9431090C94000060914C0170914D01D8
:1001200080914E0190914F0120E030E040E050E09E
:100130000E94410818168CF488E061E00E945C047B
:1001400060914C0170914D0180914E0190914F0151
:1001500020E030E04FE753E410C088E060E00E9408
:100160005C0460914C0170914D0180914E01909121
:100170004F0120E030E04FE753EC0E9445080E9419
:100180005E079B01AC0186E0B9010E94E303609128
:10019000500170915101809152019091530120E0E2
:1001A00030E040E050E00E94410818168CF487E0EF
:1001B00061E00E945C046091500170915101809156
:1001C00052019091530120E030E04FE753E410C01A
:1001D00087E060E00E945C046091500170915101E1
:1001E000809152019091530120E030E04FE753ECB1
:1001F0000E9445080E945E079B01AC0185E0B901A1
:100200000E94E3030895AF92BF92CF92DF92EF92E4
:10021000FF920F931F938DE060E00E945C048CE0DE
:1002200060E00E945C0461E070E080E090E00E9489
:10023000610382E00E94C5035C018DE060E00E94E2
:100240005C048CE061E00E945C0461E070E080E0AE
:1002500090E00E94610382E00E94C5037C01CC24EF
:10026000B7FCC094DC2CC601B5010E9491075B016C
:100270006C010027F7FC0095102FC801B7010E9400
:1002800091077B018C0180E090E0A0E8BFE38093C0
:100290004C0190934D01A0934E01B0934F01809378
:1002A000500190935101A0935201B0935301C601A4
:1002B000B50120E030E046E953E40E94F2068823CD
:1002C0000CF04FC0C801B70120E030E046E953E42C
:1002D0000E94F20688230CF04FC084EE91E060E0AB
:1002E00071E00E94820689E06FEF70E00E94E303F4
:1002F0008BE060E070E00E94E30388EE93E090936F
:1003000056018093550180915401882389F08BEE2A
:1003100091E5A8E3BFE380934C0190934D01A09336
:100320004E01B0934F018DEC9CECACE4BFEB10C0E0
:100330008DEC9CECACE4BFEB80934C0190934D01B1
:10034000A0934E01B0934F018BEE91E5A8E3BFE37C
:100350008093500190935101A0935201B0935301A7
:10036000EDC0C801B70120E030E046E953E40E9447
:10037000F20688230CF0D4C020915501309156012B
:1003800012161306A4F580915401882389F08BEE90
:1003900091E5A8E3BFE380934C0190934D01A093B6
:1003A0004E01B0934F018DEC9CECACE4BFEB10C060
:1003B0008DEC9CECACE4BFEB80934C0190934D0131
:1003C000A0934E01B0934F018BEE91E5A8E3BFE3FC
:1003D0008093500190935101A0935201B093530127
:1003E000215030403093560120935501A7C0C601DB
:1003F000B501A80197010E948D0620E030E04AE790
:1004000054E40E94F6067B018C0189E060E070E014
:100410000E94E3038BE060E070E00E94E303C80108
:10042000B70120E030E040E050E00E94F20688236F
:1004300034F584EE91E06AE071E00E94820681E08A
:1004400080935401C801B70120E030E040EA50E455
:100450000E9445089B01AC016091500170915101CF
:1004600080915201909153010E948E066093500139
:1004700070935101809352019093530124C084EEF4
:1004800091E065E171E00E94820610925401C8017A
:10049000B70120E030E040EA50EC0E9445089B01A3
:1004A000AC0160914C0170914D0180914E01909191
:1004B0004F010E948E0660934C0170934D01809312
:1004C0004E0190934F0160914C0170914D018091CC
:1004D0004E0190914F012DEC3CEC4CE45FE30E9407
:1004E000450860934C0170934D0180934E019093A9
:1004F0004F01609150017091510180915201909192
:1005000053012DEC3CEC4CE45FE30E944508609302
:1005100050017093510180935201909353010EC08A
:10052000109256011092550189E060E070E00E943F
:10053000E3038BE06FEF70E00E94E3031F910F91E4
:10054000FF90EF90DF90CF90BF90AF9008950E9402
:1005500003010E948C0060E070E080E090E00E9467
:10056000610308950F931F9304EE11E0C80140E06A
:1005700051EE60E070E00E94E604C8016FE171E0B6
:100580000E94820689E061E00E943C0489E060E00C
:1005900070E00E94E3038CE061E00E943C048CE088
:1005A00061E00E945C048DE061E00E943C048DE00B
:1005B00061E00E945C0487E061E00E943C0487E007
:1005C00061E00E945C0488E061E00E943C0488E0F5
:1005D00061E00E945C0486E060E070E00E94E3035A
:1005E00085E060E070E00E94E30380E090E0A0E836
:1005F000BFE380934C0190934D01A0934E01B093C3
:100600004F018093500190935101A0935201B093F8
:1006100053011092540110925601109255011F91EE
:100620000F9108950E948B030E94B2020E94A702BC
:10063000FDCF1F920F920FB60F9211242F933F936D
:100640008F939F93AF93BF9380915B0190915C01D7
:10065000A0915D01B0915E0130915F010196A11DF5
:10066000B11D232F2D5F2D3720F02D570196A11D91
:10067000B11D20935F0180935B0190935C01A09377
:100680005D01B0935E018091570190915801A09156
:100690005901B0915A010196A11DB11D80935701D6
:1006A00090935801A0935901B0935A01BF91AF9113
:1006B0009F918F913F912F910F900FBE0F901F90A0
:1006C0001895EF92FF920F931F937B018C018FB7C8
:1006D000F89440915B0150915C0160915D017091D3
:1006E0005E018FBF2FB7F89480915B0190915C0100
:1006F000A0915D01B0915E012FBF841B950BA60BED
:10070000B70BE816F9060A071B0760F71F910F9150
:10071000FF90EF900895789484B5826084BD84B58D
:10072000816084BD85B5826085BD85B5816085BDEC
:10073000EEE6F0E0808181608083E1E8F0E0808196
:1007400082608083808181608083E0E8F0E0808146
:1007500081608083E1EBF0E0808184608083E0EB66
:10076000F0E0808181608083EAE7F0E0808184604E
:1007700080838081826080838081816080838081AA
:10078000806880831092C10008958F70909141011C
:100790009295990F990F907C982B90937C00809163
:1007A0007A00806480937A0080917A0086FDFCCF85
:1007B0002091780040917900942F80E030E0282B40
:1007C000392BC90108951F93CF93DF93182FEB01A5
:1007D00061E00E943C04E12FF0E0E255FF4F84917C
:1007E000833051F480918000806880938000D093A2
:1007F0008900C09388003CC0843051F4809180000F
:10080000806280938000D0938B00C0938A0030C0B8
:10081000813039F4209729F184B5806884BDC7BD43
:1008200027C0823039F42097E1F084B5806284BD1E
:10083000C8BD1EC0863041F48091B00080688093AE
:10084000B000C093B30014C0873041F48091B00071
:1008500080628093B000C093B4000AC0C038D10554
:100860001CF4812F60E002C0812F61E00E945C04D3
:10087000DF91CF911F910895282F30E0C90186564E
:100880009F4FFC0194912A573F4FF901849188238F
:1008900091F0E82FF0E0EE0FFF1FE859FF4FA59110
:1008A000B491662329F48C91909589238C930895B3
:1008B0008C91892B8C930895482F50E0CA01825562
:1008C0009F4FFC012491CA0186569F4FFC019491D1
:1008D0004A575F4FFA0134913323D1F1222331F18A
:1008E000233021F4809180008F7705C0243031F4CB
:1008F000809180008F7D8093800018C0213019F492
:1009000084B58F7704C0223021F484B58F7D84BDF7
:100910000DC0263021F48091B0008F7705C02730BC
:1009200029F48091B0008F7D8093B000E32FF0E038
:10093000EE0FFF1FEE58FF4FA591B491662329F4E7
:100940008C91909589238C9308958C91892B8C930D
:1009500008951F920F920FB60F9211242F933F9379
:100960004F935F936F937F938F939F93AF93BF93B7
:10097000EF93FF934091C600E091E001F091E10117
:10098000CF01019660E870E00E94C7089C01809149
:10099000E2019091E3012817390739F0E05AFE4F40
:1009A00040833093E1012093E001FF91EF91BF91EB
:1009B000AF919F918F917F916F915F914F913F91F7
:1009C0002F910F900FBE0F901F9018955F926F920E
:1009D0007F928F929F92AF92BF92CF92DF92EF92CF
:1009E000FF920F931F93CF93DF93EC013A014B01DA
:1009F000413482E458078FE0680780E078070CF004
:100A00007FC060E874E88EE190E0A40193010E9449
:100A1000FC082150304040405040CA01B90122E05A
:100A200030E040E050E00E94FC0859016A01A60154
:100A30009501209530954095509594E0220F331FF5
:100A4000441F551F9A95D1F760E074E284EF90E05F
:100A50000E94FC08CA01B9012FEF30E040E050E0ED
:100A60000E94A808A40193010E94FC08C9018150BA
:100A70009F4F181619061CF4522E5A9403C0552481
:100A80005394521A60E079E08DE390E0A401930161
:100A90000E94FC082150304040405040CA01B9013A
:100AA00022E030E040E050E00E94FC0820953095C4
:100AB0004095509583E0220F331F441F551F8A95A0
:100AC000D1F760E074E284EF90E00E94FC08CA0174
:100AD000B9012FEF30E040E050E00E94A808A401E7
:100AE00093010E94FC08C90181509F4F18161906F6
:100AF0001CF4822F815002C081E0821B851500F515
:100B0000E885F98581E090E00A8802C0880F991F86
:100B10000A94E2F7808360E079E08DE390E0A4013D
:100B200093010E94FC082150304040405040CA01CF
:100B3000B90122E030E040E050E00E94FC0804C02F
:100B4000E885F98510829501EC81FD813083EE8185
:100B5000FF812083EA85FB85208141E050E0CA01C6
:100B60000E8402C0880F991F0A94E2F7282B208375
:100B7000EA85FB852081CA010F8402C0880F991F76
:100B80000A94E2F7282B2083EA85FB858081088878
:100B900002C0440F551F0A94E2F7842B8083DF9133
:100BA000CF911F910F91FF90EF90DF90CF90BF906A
:100BB000AF909F908F907F906F905F900895FC0111
:100BC000A085B18521898C9190E0022E02C0959577
:100BD00087950A94E2F780FFF6CF0484F585E02D2F
:100BE0006083089586E491E09093E5018093E401A9
:100BF00080E691E09093E7018093E60185EC90E038
:100C00009093E9018093E80184EC90E09093EB01EC
:100C10008093EA0180EC90E09093ED018093EC01E9
:100C200081EC90E09093EF018093EE0186EC90E0F0
:100C30009093F1018093F00184E08093F20183E0CE
:100C40008093F30187E08093F40185E08093F501C0
:100C500081E08093F60108950F931F93CF93DF9364
:100C60008C01EB0109C02196D801ED91FC91019016
:100C7000F081E02DC801099568816623A1F7DF9115
:100C8000CF911F910F910895EF92FF920F931F93B1
:100C9000CF93DF938C017B01EA010CC0D7016D91EA
:100CA0007D01D801ED91FC910190F081E02DC8010A
:100CB00009952197209791F7DF91CF911F910F917F
:100CC000FF90EF900895DC01ED91FC910280F3819B
:100CD000E02D099508950F931F938C01DC01ED9190
:100CE000FC910190F081E02D6DE00995D801ED9126
:100CF000FC910190F081E02DC8016AE009951F91F7
:100D00000F9108950F931F938C010E946306C801F1
:100D10000E946B061F910F9108955058BB27AA2778
:100D20000ED075C166D130F06BD120F031F49F3F09
:100D300011F41EF45BC10EF4E095E7FB51C1E92FFD
:100D400077D180F3BA17620773078407950718F005
:100D500071F49EF58FC10EF4E0950B2EBA2FA02DE5
:100D60000B01B90190010C01CA01A0011124FF2758
:100D7000591B99F0593F50F4503E68F11A16F04053
:100D8000A22F232F342F4427585FF3CF4695379552
:100D90002795A795F0405395C9F77EF41F16BA0B17
:100DA000620B730B840BBAF09150A1F0FF0FBB1FC5
:100DB000661F771F881FC2F70EC0BA0F621F731F0E
:100DC000841F48F4879577956795B795F7959E3F6B
:100DD00008F0B3CF9395880F08F09927EE0F9795F9
:100DE00087950895D9D008F481E008950CD00FC1FB
:100DF00007D140F0FED030F021F45F3F19F0F0C091
:100E0000511139C1F3C014D198F39923C9F3552373
:100E1000B1F3951B550BBB27AA27621773078407ED
:100E200038F09F5F5F4F220F331F441FAA1FA9F3A3
:100E300033D00E2E3AF0E0E830D091505040E69595
:100E4000001CCAF729D0FE2F27D0660F771F881FF6
:100E5000BB1F261737074807AB07B0E809F0BB0BE5
:100E6000802DBF01FF2793585F4F2AF09E3F510509
:100E700068F0B6C000C15F3FECF3983EDCF38695A6
:100E800077956795B795F7959F5FC9F7880F911D7F
:100E90009695879597F90895E1E0660F771F881F6B
:100EA000BB1F621773078407BA0720F0621B730B1E
:100EB000840BBA0BEE1F88F7E095089504D0689470
:100EC000B111D9C00895BCD088F09F5790F0B92FC8
:100ED0009927B751A0F0D1F0660F771F881F991F8F
:100EE0001AF0BA95C9F712C0B13081F0C3D0B1E0A1
:100EF0000895C0C0672F782F8827B85F39F0B93FB1
:100F0000CCF3869577956795B395D9F73EF4909590
:100F10008095709561957F4F8F4F9F4F0895E8940E
:100F200009C097FB3EF490958095709561957F4F31
:100F30008F4F9F4F9923A9F0F92F96E9BB279395DF
:100F4000F695879577956795B795F111F8CFFAF4EF
:100F5000BB0F11F460FF1BC06F5F7F4F8F4F9F4F20
:100F600016C0882311F096E911C0772321F09EE87E
:100F7000872F762F05C0662371F096E8862F70E0E4
:100F800060E02AF09A95660F771F881FDAF7880FBE
:100F90009695879597F90895990F0008550FAA0B14
:100FA000E0E8FEEF16161706E807F907C0F012167C
:100FB0001306E407F50798F0621B730B840B950B7F
:100FC00039F40A2661F0232B242B252B21F40895D4
:100FD0000A2609F4A140A6958FEF811D811D089571
:100FE00097F99F6780E870E060E008959FEF80ECDC
:100FF000089500240A94161617061806090608957F
:1010000000240A9412161306140605060895092EE4
:101010000394000C11F4882352F0BB0F40F4BF2B53
:1010200011F460FF04C06F5F7F4F8F4F9F4F089593
:1010300057FD9058440F551F59F05F3F71F0479589
:10104000880F97FB991F61F09F3F79F0879508956E
:10105000121613061406551FF2CF4695F1DF08C08D
:10106000161617061806991FF1CF869571056105AA
:1010700008940895E894BB2766277727CB0197F952
:1010800008958ADF08F48FEF08950BD0C0CFB1DF49
:1010900028F0B6DF18F0952309F0A2CFA7CF1124CE
:1010A000EACFC6DFA0F3959FD1F3950F50E0551F0F
:1010B000629FF001729FBB27F00DB11D639FAA27AD
:1010C000F00DB11DAA1F649F6627B00DA11D661FFC
:1010D000829F2227B00DA11D621F739FB00DA11D1D
:1010E000621F839FA00D611D221F749F3327A00DD7
:1010F000611D231F849F600D211D822F762F6A2F73
:1011000011249F5750408AF0E1F088234AF0EE0FF7
:10111000FF1FBB1F661F771F881F91505040A9F704
:101120009E3F510570F05CCFA6CF5F3FECF3983E39
:10113000DCF3869577956795B795F795E7959F5F6B
:10114000C1F7FE2B880F911D9695879597F9089505
:10115000629FD001739FF001829FE00DF11D649F9B
:10116000E00DF11D929FF00D839FF00D749FF00D27
:10117000659FF00D9927729FB00DE11DF91F639FC8
:10118000B00DE11DF91FBD01CF011124089597FB9A
:10119000092E07260AD077FD04D049D006D00020BA
:1011A0001AF4709561957F4F0895F6F790958195A3
:1011B0009F4F0895A1E21A2EAA1BBB1BFD010DC073
:1011C000AA1FBB1FEE1FFF1FA217B307E407F507F7
:1011D00020F0A21BB30BE40BF50B661F771F881FD3
:1011E000991F1A9469F760957095809590959B0169
:1011F000AC01BD01CF01089597FB092E05260ED045
:1012000057FD04D0D7DF0AD0001C38F45095409524
:10121000309521953F4F4F4F5F4F0895F6F79095CA
:101220008095709561957F4F8F4F9F4F0895AA1BB2
:10123000BB1B51E107C0AA1FBB1FA617B70710F0C1
:10124000A61BB70B881F991F5A95A9F780959095F3
:10125000BC01CD010895EE0FFF1F0590F491E02D24
:061260000994F894FFCF91
:101266004F464620545241434B00474F544F20525D
:101276004947485400474F544F204C454654002395
:1012860023204D617276696E207468652050617204
:10129600616E6F69642041726475696E6F202323E5
:0C12A600000100000000DF052C064406DB
:00000001FF
